:020000040800F2
:1000000000000220C5650008A1640008A76400087C
:10001000AD640008B3640008B96400080000000083
:10002000000000000000000000000000F1DD0008FA
:10003000BF6400080000000041E00008CD64000833
:1000400015660008156600081566000815660008A4
:100050001566000815660008156600081566000894
:100060001566000815660008156600081566000884
:100070001566000815660008156600081566000874
:100080001566000815660008156600081566000864
:10009000156600081566000815660008E764000884
:1000A00015660008F9640008156600081566000862
:1000B00015660008156600080D650008156600083D
:1000C0001566000815660008156600081566000824
:1000D0001566000815660008156600082165000809
:1000E0001566000815660008156600081566000804
:1000F00015660008156600081566000815660008F4
:1001000015660008156600081566000815660008E3
:1001100015660008156600081566000815660008D3
:1001200015660008156600081566000815660008C3
:1001300015660008156600081566000815660008B3
:1001400015660008156600081566000815660008A3
:100150001566000815660008156600081566000893
:100160001566000815660008156600081566000883
:1001700015660008156600081566000800000000F6
:08018000156600081566000871
:1001900010B5054C237833B9044B13B10448AFF3C1
:1001A00000800123237010BDA0010020000000008A
:1001B0006801010808B5034B1BB103490348AFF3BD
:1001C000008008BD00000000A401002068010108B3
:1001D00001F0FF01102A2BDB10F0070F08D010F8F8
:1001E000013B013A8B422DD010F0070F42B3F6D1FC
:1001F000F0B441EA012141EA014122F007047FF015
:1002000000070023F0E80256083C85EA010586EA6B
:10021000010685FA47F5A3FA87F586FA47F6A5FAA7
:1002200087F68EB9EED1F0BC01F0FF0102F00702B3
:1002300032B110F8013B013A83EA010313B1F8D15E
:100240000020704701387047002D06BF354603383F
:10025000073815F0010F07D1013015F4807F02BF78
:10026000013015F4C03F0130F0BC0138704700BFC9
:1002700081F0004102E000BF83F0004330B54FEA57
:1002800041044FEA430594EA050F08BF90EA020FC4
:100290001FBF54EA000C55EA020C7FEA645C7FEA57
:1002A000655C00F0E2804FEA5454D4EB5555B8BF7A
:1002B0006D420CDD2C4480EA020281EA030382EAEB
:1002C000000083EA010180EA020281EA0303362D7D
:1002D00088BF30BD11F0004F4FEA01314FF4801C50
:1002E0004CEA113102D0404261EB410113F0004F62
:1002F0004FEA03334CEA133302D0524263EB430319
:1003000094EA050F00F0A780A4F10104D5F1200EB6
:100310000DDB02FA0EFC22FA05F2801841F1000111
:1003200003FA0EF2801843FA05F359410EE0A5F1E5
:1003300020050EF1200E012A03FA0EFC28BF4CF016
:10034000020C43FA05F3C01851EBE37101F00045CC
:1003500007D54FF0000EDCF1000C7EEB00006EEBD9
:100360000101B1F5801F1BD3B1F5001F0CD3490863
:100370005FEA30004FEA3C0C04F101044FEA4452BA
:1003800012F5800F80F09A80BCF1004F08BF5FEA41
:10039000500C50F1000041EB045141EA050130BD21
:1003A0005FEA4C0C404141EB0101013C28BFB1F533
:1003B000801FE9D291F0000F04BF01460020B1FA7E
:1003C00081F308BF2033A3F10B03B3F120020CDA51
:1003D0000C3208DD02F1140CC2F10C0201FA0CF02F
:1003E00021FA02F10CE002F11402D8BFC2F1200C94
:1003F00001FA02F120FA0CFCDCBF41EA0C0190404A
:10040000E41AA2BF01EB0451294330BD6FEA040492
:100410001F3C1CDA0C340EDC04F11404C4F120027D
:1004200020FA04F001FA02F340EA030021FA04F38F
:1004300045EA030130BDC4F10C04C4F1200220FAE6
:1004400002F001FA04F340EA0300294630BD21FA24
:1004500004F0294630BD94F0000F83F4801306BFEA
:1004600081F480110134013D4EE77FEA645C18BFDE
:100470007FEA655C29D094EA050F08BF90EA020F75
:1004800005D054EA000C04BF1946104630BD91EA6D
:10049000030F1EBF0021002030BD5FEA545C05D170
:1004A0004000494128BF41F0004130BD14F58004AF
:1004B0003CBF01F5801130BD01F0004545F0FE4123
:1004C00041F470014FF0000030BD7FEA645C1ABF58
:1004D000194610467FEA655C1CBF0B46024650EA8F
:1004E000013406BF52EA033591EA030F41F40021BB
:1004F00030BD00BF90F0000F04BF0021704730B541
:100500004FF4806404F132044FF000054FF0000115
:1005100050E700BF90F0000F04BF0021704730B5D6
:100520004FF4806404F1320410F0004548BF4042AB
:100530004FF000013EE700BF42004FEAE2014FEA00
:1005400031014FEA02701FBF12F07F4393F07F4FDB
:1005500081F06051704732F07F4208BF704793F0DE
:100560007F4F04BF41F40021704730B54FF46074F1
:1005700001F0004521F000411CE700BF50EA0102F4
:1005800008BF704730B54FF000050AE050EA01029D
:1005900008BF704730B511F0004502D5404261EB0D
:1005A00041014FF4806404F132045FEA915C3FF44E
:1005B000D8AE4FF003025FEADC0C18BF03325FEAEB
:1005C000DC0C18BF033202EBDC02C2F1200300FA9C
:1005D00003FC20FA02F001FA03FE40EA0E0021FAC1
:1005E00002F11444BDE600BF70B54FF0FF0C4CF4AF
:1005F000E06C1CEA11541DBF1CEA135594EA0C0F61
:1006000095EA0C0F00F0DEF82C4481EA030621EA9B
:100610004C5123EA4C5350EA013518BF52EA0335D6
:1006200041F4801143F4801338D0A0FB02CE4FF088
:100630000005E1FB02E506F00042E0FB03E54FF0B8
:100640000006E1FB03569CF0000F18BF4EF0010EB0
:10065000A4F1FF04B6F5007F64F5407404D25FEAAC
:100660004E0E6D4146EB060642EAC62141EA55515F
:100670004FEAC52040EA5E504FEACE2EB4F1FD0CA1
:1006800088BFBCF5E06F1ED8BEF1004F08BF5FEA1F
:10069000500E50F1000041EB045170BD06F00046D1
:1006A00046EA010140EA020081EA0301B4EB5C047E
:1006B000C2BFD4EB0C0541EA045170BD41F4801176
:1006C0004FF0000E013C00F3AB8014F1360FDEBF9B
:1006D000002001F0004170BDC4F10004203C35DA77
:1006E0000C341BDC04F11404C4F1200500FA05F3FA
:1006F00020FA04F001FA05F240EA020001F000429B
:1007000021F0004110EBD37021FA04F642EB060110
:100710005EEA430E08BF20EAD37070BDC4F10C043A
:10072000C4F1200500FA04F320FA05F001FA04F2FE
:1007300040EA020001F0004110EBD37041F10001EA
:100740005EEA430E08BF20EAD37070BDC4F12005F5
:1007500000FA05F24EEA020E20FA04F301FA05F25D
:1007600043EA020321FA04F001F0004121FA04F205
:1007700020EA020000EBD3705EEA430E08BF20EAD5
:10078000D37070BD94F0000F0FD101F0004640000F
:1007900041EB010111F4801F08BF013CF7D041EA91
:1007A000060195F0000F18BF704703F00046520095
:1007B00043EB030313F4801F08BF013DF7D043EA66
:1007C0000603704794EA0C0F0CEA135518BF95EA1C
:1007D0000C0F0CD050EA410618BF52EA4306D1D1A3
:1007E00081EA030101F000414FF0000070BD50EAC2
:1007F000410606BF1046194652EA430619D094EA4C
:100800000C0F02D150EA013613D195EA0C0F05D135
:1008100052EA03361CBF104619460AD181EA030189
:1008200001F0004141F0FE4141F470014FF0000041
:1008300070BD41F0FE4141F4780170BD70B54FF0DC
:10084000FF0C4CF4E06C1CEA11541DBF1CEA13555C
:1008500094EA0C0F95EA0C0F00F0A7F8A4EB05043E
:1008600081EA030E52EA03354FEA013100F0888035
:100870004FEA03334FF0805545EA131343EA1263FE
:100880004FEA022245EA111545EA10654FEA0026B3
:100890000EF000419D4208BF964244F1FD0404F56C
:1008A000407402D25B084FEA3202B61A65EB0305C8
:1008B0005B084FEA32024FF480104FF4002CB6EB85
:1008C000020E75EB030E22BFB61A754640EA0C0005
:1008D0005B084FEA3202B6EB020E75EB030E22BF45
:1008E000B61A754640EA5C005B084FEA3202B6EB86
:1008F000020E75EB030E22BFB61A754640EA9C0045
:100900005B084FEA3202B6EB020E75EB030E22BF14
:10091000B61A754640EADC0055EA060E18D04FEAD2
:10092000051545EA16754FEA06164FEAC30343EA72
:1009300052734FEAC2025FEA1C1CC0D111F4801F3F
:100940000BD141EA00014FF000004FF0004CB6E738
:1009500011F4801F04BF01430020B4F1FD0C88BFD7
:10096000BCF5E06F3FF6AFAEB5EB030C04BFB6EBE2
:10097000020C5FEA500C50F1000041EB045170BDD5
:100980000EF0004E4EEA113114EB5C04C2BFD4EB02
:100990000C0541EA045170BD41F480114FF0000E86
:1009A000013C90E645EA060E8DE60CEA135594EA02
:1009B0000C0F08BF95EA0C0F3FF43BAF94EA0C0F05
:1009C0000AD150EA01347FF434AF95EA0C0F7FF47A
:1009D00025AF104619462CE795EA0C0F06D152EACE
:1009E00003353FF4FDAE1046194622E750EA4106B2
:1009F00018BF52EA43067FF4C5AE50EA41047FF4C3
:100A00000DAF52EA43057FF4EBAE12E74FF0FF3C27
:100A100006E000BF4FF0010C02E000BF4FF0010CF8
:100A20004DF804CD4FEA410C7FEA6C5C4FEA430C71
:100A300018BF7FEA6C5C1BD001B050EA410C0CBFC0
:100A400052EA430C91EA030F02BF90EA020F002022
:100A5000704710F1000F91EA030F58BF994208BF89
:100A600090422CBFD8176FEAE37040F00100704746
:100A70004FEA410C7FEA6C5C02D150EA013C07D19D
:100A80004FEA430C7FEA6C5CD6D152EA033CD3D0E8
:100A90005DF8040B704700BF8446104662468C46E2
:100AA0001946634600E000BF01B5FFF7B7FF002815
:100AB00048BF10F1000F01BD4DF808EDFFF7F4FF3E
:100AC0000CBF012000205DF808FB00BF4DF808EDC9
:100AD000FFF7EAFF34BF012000205DF808FB00BFEC
:100AE0004DF808EDFFF7E0FF94BF012000205DF80E
:100AF00008FB00BF4DF808EDFFF7CEFF94BF0120C3
:100B000000205DF808FB00BF4DF808EDFFF7C4FFBB
:100B100034BF012000205DF808FB00BF4A0011D25D
:100B200012F5001211D20DD56FF47873B3EB625247
:100B30000ED44FEAC12343F0004343EA505323FA53
:100B400002F070474FF00000704750EA013002D1C8
:100B50004FF0FF3070474FF0000070474FEA4102FE
:100B6000B2F1E04324BFB3F5001CDCF1FE5C0DD90B
:100B700001F0004C4FEAC0024CEA5070B2F1004F55
:100B800040EB830008BF20F00100704711F0804F58
:100B900021D113F13872BCBF01F00040704741F41D
:100BA00080114FEA5252C2F11802C2F1200C10FA21
:100BB0000CF320FA02F018BF40F001004FEAC12305
:100BC0004FEAD32303FA0CFC40EA0C0023FA02F3A9
:100BD0004FEA4303CCE77FEA625307D150EA01337F
:100BE0001EBF4FF0FE4040F44000704701F000404F
:100BF00040F0FE4040F40000704700BF53B94AB9CE
:100C0000002908BF00281CBF4FF0FF314FF0FF3014
:100C100000F070B9ADF1080C6DE904CE00F006F8F3
:100C2000DDF804E0DDE9022304B070472DE9F04768
:100C3000089E0D4604460F46002B4AD18A42944630
:100C400065D9B2FA82F343B102FA03FCC3F1200280
:100C50009F4020FA02F217439C404FEA1C4E1FFAB5
:100C60008CF5B7FBFEF1220C0EFB117742EA07422E
:100C700001FB05F090420AD91CEB020201F1FF379B
:100C800080F01C81904240F2198102396244121AAC
:100C9000A4B2B2FBFEF00EFB102244EA024400FBB9
:100CA00005F5A5420AD91CEB040400F1FF3280F0DF
:100CB0000781A54240F204816444023840EA0140C1
:100CC000641B00211EB1DC400023C6E90043BDE8DF
:100CD000F0878B4208D9002E00F0ED800021C6E994
:100CE00000050846BDE8F087B3FA83F1002949D131
:100CF000AB4202D3824200F2F880841A65EB030211
:100D000001201746002EE2D0C6E90047DFE702B90E
:100D1000FFDEB2FA82F3002B40F090808A1A4FEA8D
:100D20001C471FFA8CFE0121B2FBF7F507FB1520CB
:100D3000220C42EA00420EFB05F0904208D91CEB5F
:100D4000020205F1FF3802D2904200F2CB80454604
:100D5000121AA4B2B2FBF7F007FB102244EA0244D5
:100D60000EFB00FEA64508D91CEB040400F1FF327F
:100D700002D2A64500F2BB801046A4EB0E0440EA66
:100D800005409FE7C1F120078B4022FA07FC4CEA9F
:100D9000030C05FA01F420FA07F3FD404FEA1C4961
:100DA0002343B5FBF9F81FFA8CFE09FB18551C0C00
:100DB00044EA054408FB0EF5A54202FA01F200FAE6
:100DC00001F00BD91CEB040408F1FF3A80F0888095
:100DD000A54240F28580A8F102086444641B9DB2DC
:100DE000B4FBF9F309FB134445EA044403FB0EFE8C
:100DF000A64508D91CEB040403F1FF356CD2A645C7
:100E00006AD9023B644443EA0843A3FB0295A4EB7E
:100E10000E04AC42C846AE4656D353D056B1B0EBE2
:100E2000080264EB0E0404FA07F7CA40CC401743EB
:100E3000C6E9007418460021BDE8F087C3F120011F
:100E400002FA03FC20FA01F225FA01F19D402A433F
:100E50004FEA1C471FFA8CFEB1FBF7F007FB101599
:100E6000110C41EA054100FB0EF58D4204FA03F432
:100E700008D91CEB010100F1FF382FD28D422DD98A
:100E800002386144491B92B2B1FBF7F507FB15111B
:100E900042EA014205FB0EF1914208D91CEB020225
:100EA00005F1FF3816D2914214D9023D6244521A1C
:100EB00045EA004138E73146304608E73946E6E67C
:100EC0001046FBE64845A9D2B9EB020865EB0C0ECB
:100ED000013BA3E74546EAE72B4694E74046D1E7C6
:100EE000D0467BE7023D624432E708460AE76444A5
:100EF000023842E7704700BF80B582B000AF78602B
:100F00007B681B7F022B78D1414B1B78002B1AD1B9
:100F10000421786808F0C0FF03463E4A13603C4B4A
:100F200001221A707B681B681A6A7B681B6822F0B2
:100F3000A0021A627B681B681A6A7B681B6842F011
:100F400020021A6259E0324B1B78012B55D1042143
:100F5000786808F0A1FF03462F4A13607B681B687E
:100F600000225A622C4B1A682A4B1B689A4208D9F5
:100F7000294B1A68274B1B68D31A1846FFF7BAFA91
:100F80000AE0254B1A68234B1B68D31A03F57F43ED
:100F9000FF331846FFF7AEFA1BA3D3E90023FFF790
:100FA00023FB02460B46104619464FF000024FF055
:100FB0008043FFF743FC02460B4610461946FFF7F5
:100FC000CDFD0346154A1360114B00221A707B6851
:100FD0001B681A6A7B681B6822F0A0021A627B6891
:100FE0001A687B681B68126A1A620D4B1B68DA6804
:100FF0000B4B1B6822F00402DA6000BF0837BD46C5
:1010000080BD00BFAFF300809CC420B07268A13FD8
:10101000740500206C050020700500204C050020A0
:101020007803002080B582B000AF05F0F5FA00F03B
:101030005BF900F0F9FC00F023FC00F025FB00F068
:10104000C9FC00F081FA00F073FB00F04FFA00F0E9
:10105000A9F900F0C1FB00F0F7F90DF0F1FC032253
:1010600000216A480DF0F3FA694B64221A70684B4C
:1010700000225A80674B00221A70664B00225A7079
:10108000654B1A78634B9A7000237B600CE06423F5
:101090003B7000237B805F4A7B689B0013443A6867
:1010A0005A607B6801337B605B4B1B781A467B6818
:1010B0009342ECDB9FED591ADFED590AB0EE040ABA
:1010C000584801F079F99FED561ADFED550AB0EE58
:1010D000040A554801F070F99FED511ADFED500AEE
:1010E000B7EE080A514801F067F9514B1B789BB2E3
:1010F0001A465049504809F036FD0C214F4807F078
:101100007BFF00214E4807F077FF04214C4807F091
:1011100073FF3C214B4808F003FB3C214A4808F090
:10112000FFFA464B1B6847221A644FF4967005F08D
:10113000E5FA0AF0E1FC454A002145480AF026FD9F
:101140000346444A1360444A002144480AF01EFD05
:101150000346434A1360434A002143480AF016FD00
:101160000346424A1360424A002142480AF00EFDFB
:101170000346414A1360414A002141480AF006FDF6
:101180000346404A1360404A002140480AF0FEFCF2
:1011900003463F4A13603F4A00213F480AF0F6FCED
:1011A00003463E4A13603E4A00213E480AF0EEFCE8
:1011B00003463D4A13603D4A00213D480AF0E6FCE3
:1011C00003463C4A13603C4A00213C480AF0DEFCDE
:1011D00003463B4A13603B4A00213B480AF0D6FCD9
:1011E00003463A4A13603A4A00213A480AF0CEFCD4
:1011F0000346394A1360394A002139480AF0C6FCCF
:101200000346384A13600AF09BFCFEE74C020020BC
:10121000C00400208C04002001000020CDCC4C3FF5
:10122000000000001C0500200805002030050020FB
:10123000000000208004002008040020A0020020FC
:10124000C0030020E80200203003002058020108FB
:10125000A93B00084C0400207C020108093C00085E
:1012600050040020A00201084D4100085404002051
:10127000C40201082D42000858040020E8020108B9
:10128000A14400085C0400200C030108F149000897
:101290006004002030030108ED4A000864040020C7
:1012A00054030108214F0008680400207803010856
:1012B0005D5300086C0400209C0301089957000846
:1012C00070040020C0030108D55B000874040020EE
:1012D000E4030108815D0008780400200804010887
:1012E000FD5D00087C04002080B594B000AF07F1DC
:1012F00020033022002118460DF062FC07F10C0398
:1013000000221A605A609A60DA601A610023BB609A
:10131000224B1B6C214A43F0805313641F4B1B6C00
:1013200003F08053BB60BB6800237B601C4B1B68D1
:101330001B4A43F480431360194B1B6803F480433A
:101340007B607B6802233B620123FB6210233B63CB
:101350000023BB6307F12003184607F04DF903464D
:10136000002B01D004F0C2FD0F23FB6000233B6182
:1013700000237B610023BB610023FB6107F10C03A9
:101380000021184607F0B0FB0346002B01D004F003
:10139000ADFD00BF5037BD4680BD00BF00380240E4
:1013A0000070004080B584B000AF3B4600221A6058
:1013B0005A609A60DA60214B214A1A601F4B002262
:1013C0005A601E4B00229A601C4B00221A611B4B74
:1013D00000221A76194B002283F82020174B002296
:1013E000DA62164B174A9A62144B0022DA60134BEA
:1013F0000122DA61114B002283F830200F4B0122C9
:101400005A610E4805F09EF90346002B01D004F006
:101410006DFD0B233B6001237B600023BB603B46DB
:101420001946064805F070FB0346002B01D004F076
:101430005DFD00BF1037BD4680BD00BFBC01002070
:10144000002001400100000F80B584B000AF3B4692
:1014500000221A605A609A60DA60214B214A1A60B1
:101460001F4B00225A601E4B00229A601C4B002228
:101470001A611B4B00221A76194B002283F8202098
:10148000174B0022DA62164B174A9A62144B00225D
:10149000DA60134B0122DA61114B002283F830200D
:1014A0000F4B01225A610E4805F04CF90346002B00
:1014B00001D004F01BFD0E233B6001237B60002361
:1014C000BB603B461946064805F01EFB0346002B51
:1014D00001D004F00BFD00BF1037BD4680BD00BF3A
:1014E00004020020002101400100000F80B500AF80
:1014F000124B134A1A60114B124A5A600F4B0022CA
:101500009A600E4B0022DA600C4B4FF480421A6155
:101510000A4B00225A61094B00229A61074B0022B4
:10152000DA61064B00221A62044806F07DF8034691
:10153000002B01D004F0DAFC00BF80BD4C0200207B
:1015400000540040A086010080B596B000AF07F1BE
:10155000480300221A605A609A60DA6007F140037B
:1015600000221A605A6007F1240300221A605A60B0
:101570009A60DA601A615A619A613B1D202200214B
:1015800018460DF01DFB3E4B3E4A1A603C4B4FF493
:10159000A0725A603A4B00229A60394B4FF47A722B
:1015A000DA60374B00221A61354B00225A61344B06
:1015B00080229A61324807F077FC0346002B01D065
:1015C00004F094FC4FF48053BB6407F148031946C0
:1015D0002B4808F099FB0346002B01D004F086FC51
:1015E000274807F0B0FC0346002B01D004F07EFC36
:1015F00000233B6400237B6407F140031946204825
:1016000009F0F0F80346002B01D004F06FFC6023D2
:101610007B620023BB620023FB6200237B63002309
:10162000BB630023FB6307F124030C221946144813
:1016300008F0A8FA0346002B01D004F057FC002361
:101640007B600023BB600023FB6000233B61002321
:101650007B614FF40053BB6100233B623B1D194685
:10166000074809F03BF90346002B01D004F03EFC8B
:10167000034804F079FE00BF5837BD4680BD00BF67
:10168000A00200200000014080B58CB000AF07F13F
:101690000C032422002118460DF092FA3B1D002273
:1016A0001A605A60214B4FF080421A601F4B002293
:1016B0005A601E4B00229A601C4B4FF6FF72DA6094
:1016C0001A4B00221A61194B00229A610323FB6016
:1016D00000233B6101237B610023BB610A23FB6183
:1016E00000233B6201237B620023BB620A23FB626F
:1016F00007F10C0319460D4807F06CFF0346002B59
:1017000001D004F0F3FB00237B600023BB603B1D92
:101710001946064809F066F80346002B01D004F08C
:10172000E5FB00BF3037BD4680BD00BFE8020020AA
:1017300080B58CB000AF07F10C03242200211846BD
:101740000DF03EFA3B1D00221A605A60204B214AE0
:101750001A601F4B00225A601D4B00229A601C4BDE
:101760004FF6FF72DA601A4B00221A61184B002202
:101770009A610323FB6000233B6101237B6100230B
:10178000BB610A23FB6100233B6201237B620023D0
:10179000BB620A23FB6207F10C0319460C4807F0F1
:1017A00019FF0346002B01D004F0A0FB00237B604F
:1017B0000023BB603B1D1946054809F013F803469A
:1017C000002B01D004F092FB00BF3037BD4680BD36
:1017D000300300200004004080B586B000AF07F160
:1017E000100300221A605A603B4600221A605A60B9
:1017F0009A60DA60204B214A1A601F4B0F225A6010
:101800001D4B00229A601C4B4FF6FF72DA601A4B98
:1018100000221A61184B00229A61174807F0B4FCA5
:101820000346002B01D004F061FB00233B61002341
:101830007B6107F1100319460F4808F0D3FF0346F8
:10184000002B01D004F052FB00233B6001237B609E
:101850000023BB600023FB603B4604221946064878
:1018600008F0F4F80346002B01D004F03FFB00BF62
:101870001837BD4680BD00BF780300200008004037
:1018800080B596B000AF07F1480300221A605A6095
:101890009A60DA6007F1400300221A605A6007F18B
:1018A000240300221A605A609A60DA601A615A6151
:1018B0009A613B1D2022002118460DF081F9434B0F
:1018C000434A1A60414B00225A60404B00229A6002
:1018D0003E4B41F61F42DA603C4B00221A613B4B03
:1018E00000225A61394B00229A61384807F0DCFA2D
:1018F0000346002B01D004F0F9FA4FF48053BB6487
:1019000007F148031946314808F0FEF90346002B59
:1019100001D004F0EBFA2D4807F015FB0346002B2D
:1019200001D004F0E3FA00233B6400237B6407F159
:1019300040031946254808F055FF0346002B01D007
:1019400004F0D4FA60237B620023BB620023FB62B5
:1019500000233B6300237B630023BB630023FB6303
:1019600007F1240300221946184808F00BF9034632
:10197000002B01D004F0BAFA07F12403042219461F
:10198000124808F0FFF80346002B01D004F0AEFA2D
:1019900000237B600023BB600023FB6000233B61CE
:1019A00000237B614FF40053BB6100233B623B1D6E
:1019B0001946064808F092FF0346002B01D004F0B8
:1019C00095FA00BF5837BD4680BD00BFC003002058
:1019D0000004014080B500AF114B124A1A60104B51
:1019E0004FF4E1325A600E4B00229A600C4B0022F9
:1019F000DA600B4B00221A61094B0C225A61084B2A
:101A000000229A61064B0022DA61054808F0CCFFFB
:101A10000346002B01D004F069FA00BF80BD00BF6F
:101A2000080400200048004080B58AB000AF07F1EC
:101A3000140300221A605A609A60DA601A61002367
:101A40003B614D4B1B6B4C4A43F0100313634A4BF5
:101A50001B6B03F010033B613B690023FB60464BAB
:101A60001B6B454A43F004031363434B1B6B03F0AA
:101A70000403FB60FB680023BB603F4B1B6B3E4ACB
:101A800043F0010313633C4B1B6B03F00103BB608A
:101A9000BB6800237B60384B1B6B374A43F0020363
:101AA0001363354B1B6B03F002037B607B680023E1
:101AB0003B60314B1B6B304A43F0080313632E4BE2
:101AC0001B6B03F008033B603B6800224FF4BC61D2
:101AD0002A4805F077FD00223C21294805F072FDD7
:101AE00000224FF48261274805F06CFD4FF4BC637F
:101AF0007B610123BB610023FB6100233B6207F193
:101B0000140319461D4805F0C1FB3C237B610123EA
:101B1000BB610023FB6102233B6207F114031946FA
:101B2000174805F0B3FB4FF482637B610123BB616F
:101B30000023FB6100233B6207F11403194611489F
:101B400005F0A4FB4FF480737B614FF40413BB6179
:101B50000023FB6107F1140319460B4805F096FBBF
:101B600000220521172005F0C8FA172005F0E1FA38
:101B700000BF2837BD4680BD00380240001002403B
:101B80000000024000040240000C024080B584B016
:101B900000AF78608F4B9B78A3F1300213469B0017
:101BA00013445B001A468B4BDB78303B1344FB60DD
:101BB000884B5B782F2B0CD9864B5B78392B08D858
:101BC000844B5B78303B642202FB03F3FA681344D6
:101BD000FB60814B00221A707E4B1B78532B59D12E
:101BE0007C4B5B78542B55D17C4B1B6800225A638D
:101BF0007A4B1B6800229A63794B1A78794B1A70DA
:101C0000774B0B221A70784B4FF000021A60774B1B
:101C100000221A80764800F0F0FB764800F0EDFBD9
:101C2000754800F0EAFB754B00221A80744B1A7855
:101C3000734B5B789A4212D1724B64221A70714BCB
:101C400000225A80704A0F2170480CF085FF4FF631
:101C5000FF7306226E496F4808F0F3FE03E3684BFA
:101C60005B78684A66499B000B445B681360644B71
:101C70005B780133624A927893FBF2F101FB02F246
:101C80009B1ADAB25E4B5A70634A0F215F480CF020
:101C900063FFE8E24F4B1B78462B3DD14D4B5B7801
:101CA000572B03D04B4B5B78532B35D1494B9B784B
:101CB0002D2B05D1474BDB782D2B01D1012300E0E3
:101CC0000023DAB2444B1A70424B5B78532B14BF9B
:101CD00001230023DBB21A46504B1A70484B1B7885
:101CE000474A9B00134401221A71454B1B78FA683E
:101CF00091B2434A9B0013440A46DA80404B1B785A
:101D000001333F4A927893FBF2F101FB02F29B1AF6
:101D1000DAB23B4B1A70A6E22E4B1B78422B3DD118
:101D20002C4B5B78572B03D02A4B5B78532B35D148
:101D3000284B9B782D2B05D1264BDB782D2B01D101
:101D4000012300E00023DAB2234B1A70214B5B78A9
:101D5000532B14BF01230023DBB21A462F4B1A70FA
:101D6000274B1B78264A9B00134402221A71244BEE
:101D70001B78FA6891B2224A9B0013440A46DA8023
:101D80001F4B1B7801331E4A927893FBF2F101FB43
:101D900002F29B1ADAB21A4B1A7064E20D4B1B78EE
:101DA000462B5CD10B4B5B784C2B58D1094B9B7865
:101DB0002D2B05D1074BDB782D2B01D1012300E022
:101DC0000023DAB2044B1A70034B1B78002B27D088
:101DD000032126E080040020E4040020C00300204A
:101DE0003401002035010020EC040020F204002022
:101DF0001C050020080500203005002000050020FB
:101E00008C040020C004002018020108C404002033
:101E100020020108080400202802010836010020E1
:101E200007218D4B1B788C4A9B0013440A461A717C
:101E3000894B1B78FA6891B2874A9B0013440A4683
:101E4000DA80854B1B780133834A927893FBF2F159
:101E500001FB02F29B1ADAB27F4B1A7003E27F4B4E
:101E60001B78462B36D17D4B5B78522B32D17B4B86
:101E70009B782D2B05D1794BDB782D2B01D10123BC
:101E800000E00023DAB2764B1A70754B1B78002BFA
:101E900001D0042100E008216F4B1B786E4A9B00A3
:101EA00013440A461A716C4B1B78FA6891B26A4A5D
:101EB0009B0013440A46DA80674B1B780133664A5D
:101EC000927893FBF2F101FB02F29B1ADAB2624BB9
:101ED0001A70C8E1614B1B78422B36D15F4B5B789F
:101EE0004C2B32D15D4B9B782D2B05D15B4BDB7896
:101EF0002D2B01D1012300E00023DAB2584B1A70D8
:101F0000574B1B78002B01D0052100E00921524BD3
:101F10001B78514A9B0013440A461A714E4B1B789A
:101F2000FA6891B24C4A9B0013440A46DA804A4B45
:101F30001B780133484A927893FBF2F101FB02F2DD
:101F40009B1ADAB2444B1A708DE1444B1B78422B3A
:101F500036D1424B5B78522B32D1404B9B782D2BA4
:101F600005D13E4BDB782D2B01D1012300E000236E
:101F7000DAB23B4B1A703A4B1B78002B01D006218A
:101F800000E00A21344B1B78334A9B0013440A4675
:101F90001A71314B1B78FA6891B22F4A9B00134497
:101FA0000A46DA802C4B1B7801332B4A927893FB3C
:101FB000F2F101FB02F29B1ADAB2274B1A7052E1DE
:101FC000264B1B78542B21D1244B5B784C2B1DD1F5
:101FD000214B1B78204A9B0013440B221A711E4B85
:101FE0001B78FA6891B21C4A9B0013440A46DA80B7
:101FF000194B1B780133184A927893FBF2F101FBDD
:1020000002F29B1ADAB2144B1A702CE1134B1B78B4
:10201000542B27D1114B5B78522B23D10E4B1B78BD
:102020000D4A9B0013440C221A710B4B1B78FA6863
:1020300091B2094A9B0013440A46DA80064B1B788A
:102040000133054A927893FBF2F101FB02F29B1AED
:10205000DAB2014B1A7006E18C04002080040020E3
:10206000E4040020974B1B78492B21D1954B5B78DA
:10207000522B1DD1944B1B78934A9B0013440D2285
:102080001A71914B1B78FA6891B28F4A9B001344E6
:102090000A46DA808C4B1B7801338B4A927893FB8B
:1020A000F2F101FB02F29B1ADAB2874B1A70DAE006
:1020B000844B1B78442B21D1824B5B78542B1DD150
:1020C000814B1B78804A9B0013440E221A717E4B71
:1020D0001B78FA6891B27C4A9B0013440A46DA8066
:1020E000794B1B780133784A927893FBF2F101FB2C
:1020F00002F29B1ADAB2744B1A70B4E0714B1B787F
:102100005A2B21D16F4B5B785A2B1DD16E4B1B780C
:102110006D4A9B0013440F221A716B4B1B78FA68AF
:1021200091B2694A9B0013440A46DA80664B1B78D9
:102130000133654A927893FBF2F101FB02F29B1A9C
:10214000DAB2614B1A708EE05E4B1B78572B21D1AF
:102150005C4B5B78582B1DD15B4B1B785A4A9B001C
:10216000134410221A71584B1B78FA6891B2564AE0
:102170009B0013440A46DA80534B1B780133524AC2
:10218000927893FBF2F101FB02F29B1ADAB24E4B0A
:102190001A7068E04B4B1B78572B21D1494B5B7869
:1021A0004E2B1DD1484B1B78474A9B0013441122EC
:1021B0001A71454B1B78FA6891B2434A9B0013444D
:1021C0000A46DA80404B1B7801333F4A927893FBF2
:1021D000F2F101FB02F29B1ADAB23B4B1A7042E0B9
:1021E000384B1B78412B1DD1374B1B78364A9B004F
:1021F000134458221A71344B1B78FA6891B2324A50
:102200009B0013440A46DA802F4B1B7801332E4A79
:10221000927893FBF2F101FB02F29B1ADAB22A4B9D
:102220001A7020E0274B1B78432B1CD1264B1B78C0
:10223000254A9B00134459221A71234B1B78FA68D4
:1022400091B2214A9B0013440A46DA801E4B1B7848
:1022500001331D4A927893FBF2F101FB02F29B1AC3
:10226000DAB2194B1A70184B1A78174B5B789A42EE
:1022700019D0154B5B78154A13499B000B445B68DA
:102280001360114B5B7801330F4A927893FBF2F1A4
:1022900001FB02F29B1ADAB20B4B5A700C4A0F2167
:1022A0000C480CF059FC0C4B1B685B680B4B1B7803
:1022B0009BB21A460349084808F055FC00BF103786
:1022C000BD4680BD800400208C040020C004002096
:1022D00028020108C4040020080400200000002097
:1022E00080B582B000AF0346FB802D4B1B68002BEE
:1022F00051D1FB88B3F5807F4ED1294B01221A6062
:10230000284B93F90030DBB2274A12781046073386
:10231000D9B2254A830013440A461A71224B1B780E
:10232000214A9B0013440022DA801F4B1B780133A3
:102330001D4A927893FBF2F101FB02F29B1ADAB28A
:10234000194B1A70184B5B78184A17499B000B44BD
:102350005B681360144B5B780133134A927893FBEC
:10236000F2F101FB02F29B1ADAB20F4B5A70104ADB
:102370000F2110480CF0F0FB0A4B93F900300133A9
:102380005A4203F0030302F0030258BF53425AB209
:10239000044B1A7000E000BF0837BD4680BD00BF87
:1023A000780500207C0500208C040020C00400205B
:1023B00028020108C404002080B485B000AFF86092
:1023C00087ED020AC7ED010A87ED001AFB68BA68BB
:1023D0001A60FB687A685A60FB683A689A60FB6822
:1023E0004FF00002DA60FB684FF000021A6100BF94
:1023F0001437BD465DF8047B704780B483B000AFEE
:1024000078607B684FF00002DA607B684FF0000272
:102410001A6100BF0C37BD465DF8047B70470000B1
:1024200080B586B004AF0346FB714FF6FF7302938D
:1024300002230193A94B009301233722D021A848FE
:1024400005F030FBA54B1B781B021AB2A34B5B783F
:102450001BB213431AB2A34B1A80A34B1B681B6811
:1024600003F01003102B01D1012201E04FF0FF32E5
:102470009E4B1A709B4BB3F9003013F1030F04DB32
:10248000984BB3F90030082B07DD964BB3F90030B9
:1024900007EE903AF8EEE77A01E0DFED957A954B9A
:1024A00093ED007A77EE877A924BC3ED007AFB7951
:1024B000002B64D1904B93ED007A8E4BD3ED007AD4
:1024C00027EE277A8C4BD3ED016A8B4BD3ED047A40
:1024D00066EEA77A37EE277A874BD3ED026A864BF2
:1024E00093ED036A834BD3ED007A76EE677A66EE5E
:1024F000A77A77EE277AFDEEE77A17EE902A7F4BE0
:102500001A607C4B1B687C4AD3607B4B93ED047A4A
:10251000784BD3ED007A77EE277A774BC3ED047AC8
:10252000764B1B68B3F5167F06DC744B1B68744A48
:102530009342B8BF134601E04FF416736F4A13601D
:102540006A4B93F900309AB26C4B1B689BB212FB3A
:1025500003F39BB203F596639AB26A4B1A80634BFE
:1025600093F900309AB2654B1B689BB212FB03F3E0
:102570009BB2C3F596639AB2634B1A80EFE0FB7986
:10258000022B65D1614B93ED007A5A4BD3ED007A63
:1025900027EE277A5D4BD3ED016A5C4BD3ED047ACD
:1025A00066EEA77A37EE277A584BD3ED026A574B7F
:1025B00093ED036A4F4BD3ED007A76EE677A66EEC1
:1025C000A77A77EE277AFDEEE77A17EE902A4B4B43
:1025D0001A60484B1B684D4AD3604C4B93ED047A0C
:1025E000444BD3ED007A77EE277A484BC3ED047A5B
:1025F000424B1B68B3F52F7F06DC404B1B68444AF7
:102600009342B8BF134601E04FF42F733B4A136067
:10261000364B93F900309AB2384B1B689BB212FBD1
:1026200003F39BB203F6B8339AB2364B1A802F4BA2
:1026300093F900309AB2314B1B689BB212FB03F343
:102640009BB2C3F53B6308339AB22F4B1A8086E0E6
:10265000FB79012B40F083802E4B93ED007A254BC4
:10266000D3ED007A27EE277A2A4BD3ED016A294B66
:10267000D3ED047A66EEA77A37EE277A254BD3EDB1
:10268000026A244B93ED036A1A4BD3ED007A76EE7F
:10269000677A66EEA77A77EE277AFDEEE77A17EE8D
:1026A000902A164B1A60134B1B681A4AD360194BB9
:1026B00093ED047A0F4BD3ED007A77EE277A154B22
:1026C000C3ED047A0D4B1B68B3F52F7F24DC0B4B55
:1026D0001B680F4A9342B8BF13461FE0F004002066
:1026E0004C020020F2040020E80200203C010020FF
:1026F00000000000EC0400201C05002080050020E4
:10270000A8FDFFFFF4040020F6040020300500209F
:1027100044FDFFFF080500204FF42F73174A136094
:10272000174B93F900309AB2144B1B689BB212FB03
:1027300003F39BB203F6FC039AB2124B1A80104BC0
:1027400093F900309AB20D4B1B689BB212FB03F356
:102750009BB2C3F50F630C339AB20B4B1A80094B33
:102760001A880A4B1B685A63074B1A88074B1B6869
:102770009A6300BF0837BD4680BD00BF80050020BA
:102780003C010020F4040020F6040020C0030020D7
:1027900080B586B004AF03463960FB714FF6FF7316
:1027A0000293022301939B4B009301233722D021F4
:1027B000994805F077F9974B1B781B021AB2954B95
:1027C0005B781BB213431AB2944B1A80944B1B686C
:1027D0001B6803F01003102B01D1012201E04FF020
:1027E000FF32904B1A708D4BB3F9003013F1040F88
:1027F00004DB8A4BB3F90030082B07DD874BB3F9B4
:10280000003007EE903AF8EEE77A01E0DFED867AE5
:10281000864B93ED007A77EE877A844BC3ED007A8E
:10282000FB79012B65D1824B93ED007A7F4BD3ED81
:10283000007A27EE277A7E4BD3ED016A7C4BD3EDED
:10284000047A66EEA77A37EE277A794BD3ED026ADF
:10285000774B93ED036A754BD3ED007A76EE677A8A
:1028600066EEA77A77EE277AFDEEE77A17EE902AE2
:10287000704B1A606D4B1B686D4AD3606C4B93EDC7
:10288000047A6A4BD3ED007A77EE277A684BC3ED72
:10289000047A684B1B68B3F52F7F06DC654B1B6819
:1028A000654A9342B8BF134601E04FF42F73614A63
:1028B00013605C4B93F900309AB25E4B1B689BB27D
:1028C00012FB03F39BB203F6FC039AB25B4B1A8034
:1028D000544B93F900309AB2564B1B689BB212FBD3
:1028E00003F39BB2C3F50F630C339AB2544B1A80B7
:1028F00067E0FB79022B64D1524B93ED007A4B4B8E
:10290000D3ED007A27EE277A4E4BD3ED016A4D4B7B
:10291000D3ED047A66EEA77A37EE277A494BD3EDEA
:10292000026A484B93ED036A404BD3ED007A76EE92
:10293000677A66EEA77A77EE277AFDEEE77A17EEEA
:10294000902A3C4B1A60394B1B683E4AD3603D4B82
:1029500093ED047A354BD3ED007A77EE277A394B35
:10296000C3ED047A334B1B68B3F52F7F06DC314B84
:102970001B68314A9342B8BF134601E04FF42F73EE
:102980002C4A1360274B93F900309AB2294B1B68ED
:102990009BB212FB03F39BB203F6B8339AB2274BF8
:1029A0001A80204B93F900309AB2224B1B689BB2DD
:1029B00012FB03F39BB2C3F53B6308339AB2204B7F
:1029C0001A801E4B1B8807EE903AB8EEE77A3B68F8
:1029D000D3ED007A67EE277A1B4B1B68FCEEE77A93
:1029E00017EE902A5A63164B1B8807EE903AB8EE02
:1029F000E77A3B68D3ED007A67EE277A124B1B68C3
:102A0000FCEEE77A17EE902A9A6300BF0837BD46BE
:102A100080BD00BFF00400204C020020F204002022
:102A2000E80200203C01002000000000EC0400202F
:102A3000080500208005002044FDFFFFF40400206D
:102A4000F604002030050020C00300200000000034
:102A500080B584B000AF78600B46FB701346BB7046
:102A6000A34B4FF000021A60A24B00221A80A2482A
:102A7000FFF7C3FCA148FFF7C0FCA148FFF7BDFC6E
:102A8000A04B00221A807B681B681846FDF754FD96
:102A900091A3D3E90023FDF7A7FD02460B4610469C
:102AA00019468FA3D3E90023FDF7C8FE02460B4663
:102AB000104619464FF00002934BFDF795FD024674
:102AC0000B46104619464FF00002904BFDF7D4FB21
:102AD00002460B4610461946FEF720F803469AB206
:102AE0008B4B1A8003F0FEFD03468A4A1360FB7885
:102AF000002B0CBF01230023DBB21A4604218648B9
:102B000004F060FDFB78002B14BF01230023DBB22F
:102B10001A460821804804F055FDFB78002B0CBFB5
:102B200001230023DBB21A4620217B4804F04AFD32
:102B3000FB78002B14BF01230023DBB21A461021BF
:102B4000754804F03FFD754B1B685B6A9AB2744B85
:102B50001A80724B1B685B6AFB60704B1B681B68BA
:102B600003F01003102B17D16D4B1B881A46FB681E
:102B7000934206D86A4B1A88FB689BB2D31A9BB261
:102B800007E0674B1A88FB689BB2D31A9BB2013BE4
:102B90009BB2644A138016E0614B1B881A46FB689F
:102BA000934206D3FB689AB25D4B1B88D31A9BB243
:102BB00007E0FB689AB25A4B1B88D31A9BB2013BC1
:102BC0009BB2584A1380FB689AB2554B1A804D4B02
:102BD0001A88544B1B8813449AB24A4B1A80494BAB
:102BE0001A884B4B1B889A4280F0A48003F07AFD30
:102BF0000246484B1B68D31A092BAAD9BB78002B75
:102C000003D10020FFF70CFC5FE03E4B1B881A4607
:102C10003F4B1B88D31A002BB8BF5B42424A82FB52
:102C20000312D211DB17D31A07EE903AF8EEE77AC7
:102C30003E4BC3ED007ABB78012B1ED13B4BD3ED4D
:102C4000007AB7EE007AF4EEC77AF1EE10FA02DD00
:102C50004FF07E530EE0354BD3ED007AB6EE087A96
:102C6000F4EEC77AF1EE10FA02D54FF07D5301E091
:102C70002E4B1B682D4A136022E0BB78022B1FD11C
:102C80002A4BD3ED007AB7EE007AF4EEC77AF1EE74
:102C900010FA02DD4FF07E5310E0244B1B681846FB
:102CA000FDF74AFC10A3D3E90023FDF70FFF03460D
:102CB000002B01D01E4B01E01C4B1B681B4A13600C
:102CC000BB781A491846FFF763FD03F00BFD034676
:102CD000104A13603DE700BF27BE6343FA67F33F26
:102CE0006666666666A635409A9999999999D93F1C
:102CF000EC040020F20400201C0500200805002040
:102D0000300500200005002000A094400000244071
:102D100002050020F804002000000240E802002024
:102D200006050020040500206757192138010020FE
:102D3000CDCCCC3E00BF064B1B6800225A63044B2F
:102D40001B6800229A6300BF1037BD4680BD00BFDC
:102D5000C00300200000000080B582B000AF7860A2
:102D60000B46FB70AA4B4FF000021A60A94B0022E1
:102D70001A80A948FFF741FBA848FFF73EFBA84887
:102D8000FFF73BFBA74BA84A1A600421A74806F0AF
:102D90004BFA03F0A7FC0346A54A13600122102159
:102DA000A44804F00FFCA14B1B6800225A629F4B01
:102DB0001B685B6A092BFAD9002210219D4804F098
:102DC00001FC9A4B1B68DA68984B1B6842F00402BE
:102DD000DA600A2008F06CFF7B6893ED007A914B73
:102DE000D3ED007A77EE677AFDEEE77A17EE903A48
:102DF000002B0EDB7B6893ED007A8A4BD3ED007AD3
:102E000077EE677AFDEEE77A17EE903A002B40F303
:102E1000E7807B6893ED007A824BD3ED007AB4EEC5
:102E2000E77AF1EE10FA94BF01230023DBB283F0BE
:102E30000103DBB2DBB21A4604217F4804F0C2FB77
:102E40007B6893ED007A774BD3ED007AB4EEE77AA6
:102E5000F1EE10FA94BF01230023DBB21A460821D9
:102E6000754804F0AFFB7B6893ED007A6D4BD3EDB2
:102E7000007AB4EEE77AF1EE10FA94BF0123002352
:102E8000DBB283F00103DBB2DBB21A4620216A48D1
:102E900004F098FB7B6893ED007A624BD3ED007AE7
:102EA000B4EEE77AF1EE10FA94BF01230023DBB20F
:102EB0001A461021604804F085FB03F013FC02461B
:102EC0005B4B1B68D31A132B7FF668AFFB78012B83
:102ED0003FD1544B93ED007A7B68D3ED007A77EEC7
:102EE000677AFDEEE77A17EE903A002BB8BF5B42A7
:102EF000524A82FB03121A44D210DB17D31A07EE90
:102F0000903AF8EEE77A4E4BC3ED007A4C4BD3ED96
:102F1000007AB7EE007AF4EEC77AF1EE10FA02DD2D
:102F20004FF07E530EE0464BD3ED007AB6EE087AB2
:102F3000F4EEC77AF1EE10FA02D54FF07D5301E0BE
:102F40003F4B1B683E4A13603D490120FFF720FCC0
:102F500040E0344B93ED007A7B68D3ED007A77EE56
:102F6000677AFDEEE77A17EE903A002BB8BF5B4226
:102F7000324A82FB03121A44D210DB17D31A07EE2F
:102F8000903AF8EEE77A2E4BC3ED007A2C4BD3ED56
:102F9000007AB7EE007AF4EEC77AF1EE10FA02DDAD
:102FA0004FF07E5310E0264B1B681846FDF7C4FA1D
:102FB00015A3D3E90023FDF789FD0346002B01D0BB
:102FC000204B01E01E4B1B681D4A13601C49022068
:102FD000FFF7DEFB03F086FB0346154A1360DDE6D0
:102FE00000BF194B1B6800225A63174B1B68002255
:102FF0009A6304210D4806F03FFA00BF0837BD462A
:1030000080BD00BFAFF300809A9999999999D93FF3
:10301000EC040020F20400201C050020080500201C
:10302000300500204C05002000007A447803002081
:10303000F8040020000402400000024089888888CB
:1030400038010020CDCCCC3EC003002000000000A1
:1030500080B582B000AF7860A14B00221A80A14BEE
:1030600000221A60A04BA14A1A6003F03BFB034602
:103070009F4A13609F4803F0A9FB14219D4803F069
:10308000AAFC9C4803F032FD0246964B1B68134491
:10309000944A1360924B1B880133974A82FB0312B8
:1030A0005111DA178A1A642101FB02F29A1A92B2BC
:1030B0008B4B1A808A4B1B88632B29D1894B1B6849
:1030C000874A1288B3FBF2F31846FDF713FA7EA382
:1030D000D3E90023FDF7D0F802460B467CA1D1E9E5
:1030E0000001FDF7ABFB02460B4610461946FDF703
:1030F00035FD03467C4A13607A4B1B68784A128878
:10310000B3FBF2F39AB27D4B1A80764B00221A6021
:103110007B68D3ED007AF5EEC07AF1EE10FA1CDD93
:103120007B6893ED007A704BD3ED007A77EE677A87
:10313000FDEEE77A17EE903A002B0EDB7B6893EDFD
:10314000007A694BD3ED007A77EE677AFDEEE77A85
:1031500017EE903A002B40F3A4807B6893ED007A41
:10316000614BD3ED007AB4EEE77AF1EE10FA94BF3A
:1031700001230023DBB283F00103DBB2DBB21A468A
:1031800004215F4804F01EFA7B6893ED007A564BE9
:10319000D3ED007AB4EEE77AF1EE10FA94BF012392
:1031A0000023DBB21A460821554804F00BFA7B686D
:1031B00093ED007A4C4BD3ED007AB4EEE77AF1EE62
:1031C00010FA94BF01230023DBB283F00103DBB2CA
:1031D000DBB21A4620214A4804F0F4F97B6893EDEB
:1031E000007A414BD3ED007AB4EEE77AF1EE10FAB3
:1031F00094BF01230023DBB21A461021404804F09B
:10320000E1F903F06FFA0246394B1B68D31A092B18
:103210007FF630AF344B93ED007A7B68D3ED007AC4
:1032200077EE677AFDEEE77A17EE903A002BB8BF9B
:103230005B42344A82FB03121A44D210DB17D31AC2
:1032400007EE903AF8EEE77A2F4BC3ED007A2E4B5B
:10325000D3ED007AB7EE007AF4EEC77AF1EE10FA09
:1032600002DD4FF07E5310E0274B1B681846FDF738
:1032700063F919A3D3E90023FDF728FC0346002BCB
:1032800001D0224B01E0204B1B681F4A13601E49EE
:103290000220FFF77DFA03F025FA0346144A136073
:1032A000E8E600BF1A4B1B6800225A63184B1B68E4
:1032B00000229A630F4803F05BFB00BF0837BD464E
:1032C00080BD00BFAFF30080D32357FBC5467040DD
:1032D00066834C32340BD940333333333333D33FEB
:1032E00050050020540500204805002000007A44C5
:1032F000F8040020BC0100201F85EB51440500208C
:103300000000024089888888380100209A99993EF7
:10331000C003002000000000B0B586B004AF7860A4
:103320004B4B4FF000021A604A4B00221A8003F008
:10333000D9F90346484A136003F0D4F90246464BD4
:103340001B68D31A092BF7D94FF6FF730293022398
:103350000193424B009301233722D021404804F0CF
:10336000A1FB3E4B1B781B021AB23C4B5B781BB295
:1033700013431AB2374B1A80354B1B681846FDF7BA
:10338000DBF804460D46334BB3F900301846FDF721
:10339000C1F82BA3D3E90023FDF750FA02460B46F0
:1033A0001046194628A3D3E90023FDF71DF902466C
:1033B0000B4620462946FCF761FF02460B461046A5
:1033C0001946FDF7CBFB0346214A1360204B93EDD2
:1033D000007A7B68D3ED007A77EE677AFDEEE77AC4
:1033E00017EE903A002B0DDB194B93ED007A7B68BA
:1033F000D3ED007A77EE677AFDEEE77A17EE903A32
:10340000002B05DD03F06EF90346134A136093E7C2
:1034100000BF144B1B6800225A63124B1B6800222A
:103420009A63114B1B6847221A644FF4967003F09D
:1034300065F900BF0837BD46B0BD00BFAFF30080DF
:1034400066666666666630407B14AE47E17A843F06
:10345000EC040020F2040020F8040020F004002016
:103460004C020020C0030020A00200200000000049
:10347000B0B586B004AF7860494B4FF000021A60D7
:10348000484B00221A8003F02DF90346464A136088
:1034900003F028F90246444B1B68D31A092BF7D9CD
:1034A0004FF6FF73029302230193404B00930123D5
:1034B0003722D0213E4804F0F5FA3C4B1B781B0222
:1034C0001AB23A4B5B781BB213431AB2354B1A80CF
:1034D000334B1B681846FDF72FF804460D46314B59
:1034E000B3F900301846FDF715F829A3D3E90023F6
:1034F000FDF7A4F902460B461046194626A3D3E968
:103500000023FDF771F802460B4620462946FCF7DA
:10351000B5FE02460B4610461946FDF71FFB034653
:103520001F4A13601E4B93ED007A7B68D3ED007A3F
:1035300077EE677AFDEEE77A17EE903A002B0DDB17
:10354000174B93ED007A7B68D3ED007A77EE677ABC
:10355000FDEEE77A17EE903A002B05DD03F0C2F896
:103560000346114A136093E700BF124B1B68002209
:103570005A63104B1B6800229A630F4B1B6847224B
:103580001A64C82003F0BAF800BF0837BD46B0BDC2
:1035900066666666666630407B14AE47E17A843FB5
:1035A000EC040020F2040020F8040020F0040020C5
:1035B0004C020020C0030020A002002080B500AF14
:1035C000164B174A1A60174B1B6873221A644FF484
:1035D000967003F093F800220421134803F0F2FFE1
:1035E00001220821104803F0EDFF002220210E489F
:1035F00003F0E8FF012210210B4803F0E3FF0B4B1F
:103600001B6840F6B8325A63084B1B684FF4487287
:103610009A630248FFF780FE00BF80BDE8040020E7
:103620000000ACC2A002002000000240C003002045
:1036300080B500AF164B174A1A60174B1B687322F0
:103640001A644FF4967003F059F8002204211348CD
:1036500003F0B8FF01220821104803F0B3FF002255
:1036600020210E4803F0AEFF012210210B4803F089
:10367000A9FF0B4B1B6840F6B8325A63084B1B6816
:103680004FF448729A630248FFF746FE00BF80BDC0
:10369000E8040020000030C3A00200200000024027
:1036A000C003002080B582B000AF78600022042102
:1036B000254803F087FF01220821234803F082FFF9
:1036C00000222021204803F07DFF012210211E4806
:1036D00003F078FF7B681B78012B01D0032B15D1F9
:1036E0001A4B1B4A1A601B4B1B6832221A644FF498
:1036F000967003F003F8184B1B684FF4FA625A6394
:10370000154B1B6840F6AC529A6315E00F4B104AFC
:103710001A60104B1B6834221A644FF4967002F042
:10372000EDFF0D4B1B6840F6B8325A630A4B1B681D
:1037300040F6AC529A6300BF0448FFF799FE00BF01
:103740000837BD4680BD00BF00000240E8040020ED
:103750000000A642A0020020C003002080B582B075
:1037600000AF786000220421304803F02BFF0122D3
:1037700008212E4803F026FF002220212B4803F0C9
:1037800021FF01221021294803F01CFF7B681B78D0
:10379000012B02D0032B16D02BE0254B254A1A60B3
:1037A000254B1B6832221A644FF4967002F0A6FF74
:1037B000224B1B684FF4FA625A63204B1B6840F699
:1037C000AC529A632BE01A4B1D4A1A601A4B1B68C5
:1037D00032221A644FF4967002F090FF174B1B6868
:1037E0004FF4FA625A63154B1B6840F6AC529A6369
:1037F00015E00F4B134A1A600F4B1B6834221A64F2
:103800004FF4967002F07AFF0C4B1B6840F6B8320A
:103810005A630A4B1B6840F6AC529A6300BF0448D7
:10382000FFF726FE00BF0837BD4680BD00000240FE
:10383000E80400200000A642A0020020C0030020EF
:103840000000AA4200009E4280B582B000AF7860BE
:1038500000220421254803F0B5FE01220821234857
:1038600003F0B0FE00222021204803F0ABFE01222D
:1038700010211E4803F0A6FE7B681B78012B01D0A7
:10388000032B15D11A4B1B4A1A601B4B1B68732262
:103890001A644FF4967002F031FF184B1B6840F623
:1038A000AC525A63154B1B684FF4FA629A6315E0E9
:1038B0000F4B134A1A60104B1B6862221A644FF4B4
:1038C000967002F01BFF0D4B1B6840F6AC525A631A
:1038D0000A4B1B6840F6A8429A6300BF0448FFF7F2
:1038E000C7FD00BF0837BD4680BD00BF00000240D5
:1038F000E804002000002CC3A0020020C003002028
:1039000000002AC30000000080B500AF464B4FF016
:1039100000021A60454B4FF000021A60444B00222F
:103920001A8002F0DFFE0346424A1360424802F06A
:103930004DFF1421404803F04EF83F4803F0D6F8FD
:1039400002463E4B1B6813443C4A13603C4B1B88A9
:1039500001333C4A82FB03125111DA178A1A64219F
:1039600001FB02F29A1A92B2354B1A80344B1B8833
:10397000632B29D1314B1B68314A1288B3FBF2F318
:103980001846FCF7B7FD24A3D3E90023FCF774FC29
:1039900002460B4622A1D1E90001FCF74FFF024687
:1039A0000B4610461946FDF7D9F803461E4A136028
:1039B000224B1B68224A1288B3FBF2F39AB2224BC5
:1039C0001A801E4B00221A60174BD3ED007A9FED30
:1039D0001F7AF4EEC77AF1EE10FA10DC02F082FEE4
:1039E0000246144B1B68D31A092B9FD90220FEF7FD
:1039F00017FD02F077FE03460E4A136096E700BFFC
:103A0000134B1B6800225A63114B1B6800229A63F8
:103A100000BF80BDAFF30080D32357FBC546704085
:103A200066834C32340BD94048050020EC0400205A
:103A3000F2040020F8040020BC01002054050020FE
:103A4000500500201F85EB51440500200000204256
:103A5000C00300200000000080B500AF464B474A7D
:103A60001A60474B4FF000021A60464B00221A8042
:103A700002F038FE0346444A1360444802F0A6FEB2
:103A80001421424802F0A7FF404803F02FF80246F5
:103A90003F4B1B6813443E4A13603E4B1B88013367
:103AA0003D4A82FB03125111DA178A1A642101FB85
:103AB00002F29A1A92B2374B1A80364B1B88632B4C
:103AC00029D1334B1B68334A1288B3FBF2F31846F3
:103AD000FCF710FD24A3D3E90023FCF7CDFB02463D
:103AE0000B4623A1D1E90001FCF7A8FE02460B46D4
:103AF00010461946FDF732F803461F4A1360244B5F
:103B00001B68244A1288B3FBF2F39AB2234B1A8043
:103B10001F4B00221A60184BD3ED007A9FED207ADC
:103B2000F4EEC77AF1EE10FA10D402F0DBFD024693
:103B3000154B1B68D31A092B9FD90220FEF770FC86
:103B400002F0D0FD0346104A136096E700BF154B04
:103B50001B6800225A63134B1B6800229A6300BF44
:103B600080BD00BFAFF30080D32357FBC546704034
:103B700066834C32340BD9404805002000007A445B
:103B8000EC040020F2040020F8040020BC01002016
:103B900054050020500500201F85EB5144050020EE
:103BA00000002042C003002080B582B000AF7860E2
:103BB000104BD3ED007AFDEEE77A17EE903A0E4AFD
:103BC00010210E480AF0C8FF0C4A002100200AF01C
:103BD00005FF0B4A142100200AF000FF094A2821A2
:103BE00000200AF0FBFE0AF091FDFA2008F060F8D0
:103BF000DEE700BF5805002030020108D404002091
:103C0000C40400208004002080B582B000AF78603A
:103C1000C64B1B78013B632B00F27A8201A252F85B
:103C200023F000BFB53D0008B53D0008D13D0008B8
:103C3000D13D0008D13D0008D13D0008A13F00085A
:103C4000AF3F0008BD3F0008CB3F0008D93F000848
:103C5000D93F0008214000082940000837400008EB
:103C60004540000853400008114100081141000878
:103C700011410008114100081141000811410008DC
:103C800011410008114100081141000811410008CC
:103C900011410008114100081141000811410008BC
:103CA00011410008114100081141000811410008AC
:103CB000114100081141000811410008114100089C
:103CC000114100081141000811410008114100088C
:103CD000114100081141000811410008114100087C
:103CE000114100081141000811410008114100086C
:103CF000114100081141000811410008114100085C
:103D0000114100081141000811410008114100084B
:103D1000114100081141000811410008114100083B
:103D2000114100081141000811410008114100082B
:103D3000114100081141000811410008114100081B
:103D4000114100081141000811410008114100080B
:103D500011410008114100081141000811410008FB
:103D600011410008114100081141000811410008EB
:103D700011410008114100081141000811410008DB
:103D8000614000086140000811410008114100082D
:103D900011410008114100081141000811410008BB
:103DA00011410008114100081141000811410008AB
:103DB000114100085D4B1B78012B14BF0123002328
:103DC000DBB21A465A4B1A70584B63221A70A0E1A4
:103DD000564B1B78574A1B0113440433D3ED007A2A
:103DE0009FED557AF4EEC77AF1EE10FA01DD7323F8
:103DF0001CE04E4B1B784F4A1B0113440433D3ED98
:103E0000007A9FED4E7AF4EEC77AF1EE10FA01D502
:103E100032230BE0454B1B78464A1B011344043305
:103E2000D3ED007AFCEEE77A17EE903A444A126836
:103E300013644FF4967002F061FC3C4B1B783D4AD2
:103E40001B01134408331B683E4A1360374B1B7831
:103E5000384A1B0113440C331B78002B0CBF012381
:103E60000023DBB21A460421374803F0ABFB2F4B8B
:103E70001B78304A1B0113440C331B78002B14BFF2
:103E800001230023DBB21A4608212F4803F09AFBD6
:103E9000264B1B78274A1B0113440C331B78002B3D
:103EA0000CBF01230023DBB21A462021264803F071
:103EB00089FB1E4B1B781F4A1B0113440C331B78D4
:103EC000002B14BF01230023DBB21A4610211E4829
:103ED00003F078FB154B1B78164A1B0113441A8814
:103EE0001A4B1B685A63114B1B78124A1B0113446F
:103EF00002331A88154B1B689A63154B1A78144BBA
:103F00005B789A422ED1094B64221A70074B00222B
:103F10005A80104A0F2110480AF01EFE4FF6FF7318
:103F200006220E490E4806F08CFD35E0C004002044
:103F300034010020040000200000E6420000484256
:103F4000A0020020E804002000000240C00300207E
:103F50008C04002018020108C4040020200201087B
:103F6000080400206D4B5B786D4A6C499B000B4444
:103F70005B681360694B5B780133684A927893FB06
:103F8000F2F101FB02F29B1ADAB2644B5A70654AF5
:103F90000F2165480AF0E0FD614B63221A70B8E01A
:103FA000624B02221A705E4B63221A70B1E05F4BC3
:103FB00003221A705A4B63221A70AAE05B4B042248
:103FC0001A70574B63221A70A3E0584B05221A70DF
:103FD000534B63221A709CE0514B1B780B2B04D07F
:103FE000534B1B6873221A6403E0514B1B68322247
:103FF0001A644FF4967002F081FB494B64221A70E8
:10400000474B00225A804B4A0F2147480AF0A4FD33
:104010004FF6FF7306224849484806F012FD78E043
:10402000424B06221A7074E0404B07221A703C4B38
:1040300063221A706DE03D4B0A221A70384B6322DE
:104040001A7066E0394B08221A70354B63221A70D9
:104050005FE0364B09221A70314B63221A7058E028
:104060002F4B1B78582B04D0314B1B6873221A64DA
:1040700003E02F4B1B6832221A644FF4967002F053
:104080003DFB002204212E4803F09CFA0122082166
:104090002B4803F097FA00222021294803F092FAD6
:1040A00001221021264803F08DFA1D4B1B78582B56
:1040B00013D11B4B5B8807EE903AF8EE677A214BE1
:1040C000C3ED007A204B1B684FF448725A631E4BB5
:1040D0001B684FF496629A6313E0114B5B885B4256
:1040E00007EE903AF8EEE77A164BC3ED007A164BDE
:1040F0001B684FF496625A63134B1B684FF4487267
:104100009A63074B63221A700E48FFF705F900E027
:1041100000BF642007F0CCFD7AE500BF8C040020CE
:10412000C004002028020108C4040020340100203B
:10413000A002002018020108200201080804002043
:1041400000000240E8040020C003002080B584B0D5
:1041500000AF78600023FB810023BB60274B1B78F6
:10416000062B04D04FF47A7007F0A2FDF6E7244B3B
:1041700063221A70234B244A1A602248FEF768FF14
:10418000224B00221A601D4B1A78214B1A701B4BD0
:104190000B221A701F4B1A781E4B5B789A4212D171
:1041A000174B64221A70164B00225A801A4A0F21AC
:1041B0001A480AF0D1FC4FF6FF7306221849194835
:1041C00006F03FFCCAE7134B5B780D4A11499B0090
:1041D0000B445B6813600F4B5B7801330D4A927898
:1041E00093FBF2F101FB02F29B1ADAB2094B5A700F
:1041F0000D4A0F2109480AF0AFFCAFE73401002057
:10420000C0040020FC0400200000204278050020AB
:10421000350100208C04002018020108C40400208D
:1042200020020108080400202802010880B582B09D
:1042300000AF7860854B1B78002B08D0834B1B7830
:10424000012B04D04FF47A7007F032FDFCE0804B74
:104250001B78002B7ED07F4B4FF000021A607E4B04
:1042600000221A807D48FEF7C8F87D48FEF7C5F8A1
:104270007C48FEF7C2F8754B1B78002B14BF012356
:104280000023DBB21A460421774803F09BF96F4BF9
:104290001B78002B0CBF01230023DBB21A46082138
:1042A000714803F08FF9694B1B78002B14BF012371
:1042B0000023DBB21A4620216B4803F083F9634BDD
:1042C0001B78002B0CBF01230023DBB21A46102100
:1042D000654803F077F9654B1B6800225A63634B0E
:1042E0001B6800229A63594B1A78614B1A70574B1E
:1042F0000B221A705F4B00221A605F4B64221A7007
:104300005D4B00225A805D4A0F215D480AF024FC73
:104310004FF6FF7306225B495B4806F092FB02F002
:10432000E1F90346594A1360494B1B78002B00F012
:104330008A8002F0D7F90246544B1B68D31A092B26
:10434000F2D90020FEF76CF802F0CCF903464F4A90
:104350001360E9E7484B5B8807EE903AF8EE677A1E
:104360004B4BC3ED007A4A4BD3ED007AB2EE0E7A96
:10437000F4EEC77AF1EE10FA02D8464B00221A701A
:10438000444B1B78002B0CD1304B1B78002B0CBFFF
:1043900001230023DBB2012219463D48FEF758FBFA
:1043A0000BE02A4B1B78002B0CBF01230023DBB250
:1043B000022219463648FEF74BFB2C4B1B680022A5
:1043C0005A632A4B1B6800229A63204B1A78284BA9
:1043D0001A701E4B0B221A70264B00221A602E4BAD
:1043E0001A782D4B5B789A4212D1234B64221A70B3
:1043F000214B00225A80214A0F2121480AF0ACFBB0
:104400004FF6FF7306221F491F4806F01AFB11E7FB
:10441000214B5B78184A20499B000B445B68136072
:104420001D4B5B7801331C4A927893FBF2F101FB40
:1044300002F29B1ADAB2184B5A70184A0F21104830
:104440000AF08AFBF6E600BFF4E600BF3401002064
:10445000E4040020EC040020F20400201C050020ED
:10446000080500203005002000000240C0030020A5
:104470003501002078050020C00400201802010842
:10448000C40400202002010808040020F8040020D1
:10449000FC040020360100208C04002028020108C2
:1044A000B0B588B004AF78600023FB73844B1B78F1
:1044B000082B04D04FF47A7007F0FAFBF6E7814B33
:1044C00093F90030002B07D17F4B804A1A600221FC
:1044D0007D48FEF741FC3CE27A4B93F90030012B1A
:1044E00040F098810023FB73794B4FF000021A6073
:1044F000784B00221A80784B4FF000021A60774BFD
:10450000774A1A60774B4FF000021A60764B1B68AF
:1045100032221A644FF4967002F0F0F8734B1B6865
:104520004FF416725A63714B1B684FF47A729A6398
:10453000002204216E4803F045F8012208216C484E
:1045400003F040F800222021694803F03BF80122E3
:104550001021674803F036F80421664804F064FE31
:1045600002F0C0F80346644A13604FF6FF730293EB
:1045700002230193614B009301233722D02160482D
:1045800003F090FA5D4B1B781B021AB25B4B5B7811
:104590001BB213431AB24F4B1A80FB7B002B1DD169
:1045A00001221021574803F00DF8524B1B680022DE
:1045B0005A62504B1B685B6A092BFAD90022102102
:1045C000504802F0FFFF4B4B1B68DA68494B1B68F1
:1045D00042F00402DA60052007F06AFB02F082F87C
:1045E0000246454B1B68D31A092BBED9384B1B68B2
:1045F0001846FBF7A1FF04460D46364BB3F90030D1
:104600001846FBF787FF2AA3D3E90023FCF716F926
:1046100002460B461046194627A3D3E90023FBF7B1
:10462000E3FF02460B4620462946FBF727FE0246DB
:104630000B4610461946FCF791FA0346244A1360CC
:10464000284BD3ED007A9FED307AF4EEC77AF1EE85
:1046500010FA08DDFB7B002B05D11D4B1B681E4AA1
:1046600013600123FB731D4B93ED007A184BD3EDC0
:10467000007A77EE677AFDEEE77A17EE903A002B34
:104680000DDB164B93ED007A114BD3ED007A77EEEC
:10469000677AFDEEE77A17EE903A002B36DD02F0EE
:1046A00021F80346144A13605FE700BFAFF30080B0
:1046B00066666666666630407B14AE47E17A843F84
:1046C000340100207C050020FC0400200000F041A3
:1046D000EC040020F204002064050020E80400201F
:1046E0000000B4424C050020A0020020C0030020BE
:1046F0000000024078030020F8040020F0040020AD
:104700004C0200200004024000005C4200BFA24BAB
:104710001B6800225A63A04B1B6800229A639F4BC0
:104720001B6847221A644FF4967001F0E7FF0A20D5
:1047300007F0BEFA9A4B1B681846FBF7FDFE94A3E0
:10474000D3E90023FBF750FF02460B4610461946FB
:104750004FF00002934BFCF771F802460B461046EF
:104760001946FCF7FBF9034600EE103A0AF0A6FFE3
:10477000F0EE407AB3EE0E7A67EE877A8A4BC3ED9D
:10478000007A894BD3ED007A9FED887A77EE677ACD
:10479000F3EE0E6A87EEA67AB0EE470A0AF0B2FE92
:1047A000F0EE407A9FED827A67EE877A17EE900AF4
:1047B000FBF7C2FE76A3D3E90023FCF73FF80246DD
:1047C0000B4610461946FCF7C9F90346794A1360AF
:1047D000754BD3ED007A9FED757A37EE677A724BA1
:1047E000D3ED007ADFED716A76EEE77A67EE277A2D
:1047F0009FED717A77EE877AB0EE670A0AF064FE71
:10480000F0EE407AB3EE077A77EEC77A6B4BC3EDE2
:10481000007A9EE06A4B93F90030022B05D1FFF736
:1048200073F80A2007F044FA93E0654B93F90030DF
:10483000032B05D1FEF7FCFE0A2007F039FA88E0C9
:104840005F4B93F90030042B05D1FFF705F90A20DF
:1048500007F02EFA7DE05A4B93F90030052B05D175
:10486000FFF752F80A2007F023FA72E0544B93F94D
:104870000030062B05D1FEF7A1FE0A2007F018FA3A
:1048800067E04F4B93F90030072B05D1FFF73CF859
:104890000A2007F00DFA5CE0494B93F90030082B31
:1048A0001DD13E4B1B6873221A644FF4967001F0C1
:1048B00025FF394B1B684FF4FA625A63364B1B686D
:1048C0004FF47A729A633B4BD3ED007AF1EE677A3C
:1048D0003C4BC3ED007A3B48FEF71EFD39E0384BF8
:1048E00093F90030092B09D1344B1B68364A136009
:1048F000002201213448FEF7ABF82AE0304B93F94F
:1049000000300A2B19D1254B1B6832221A644FF450
:10491000967001F0F3FE204B1B684FF47A725A63D5
:104920001D4B1B684FF4FA629A63224B1B68254AA1
:1049300013602448FEF7F0FC0BE0214B93F90030A4
:104940000B2B06D1204B214A1A6002211E48FEF78C
:1049500003FA1F4B00221A601E4B1A781E4B1A7066
:104960001C4B0B221A701D4B64221A701B4B002229
:104970005A801B4A0F211B480AF0EEF84FF6FF73CE
:1049800006221949194806F05CF88FE5AFF300805C
:1049900050455254FB210940C0030020A0020020D2
:1049A00064050020008066405C0500200000704225
:1049B00000003443680500200000614460050020C9
:1049C0007C050020E8040020FC0400200000704169
:1049D000780500203401002035010020C0040020AB
:1049E00018020108C4040020200201080804002065
:1049F00080B582B000AF7860314B1B780A2B1CD099
:104A00004FF47A7007F054F9F6E701224FF4806111
:104A10002C4802F0D7FD642007F04AF900224FF439
:104A20008061284802F0CEFD642007F041F9264B52
:104A30005B88013B9AB2244B5A80234B5B88002B46
:104A4000E3D11F4B1A78214B1A701D4B0B221A70A1
:104A50001F4B00221A601F4B1A781E4B5B789A423C
:104A600012D1194B64221A70174B00225A801A4A2D
:104A70000F211A480AF070F84FF6FF730622184902
:104A8000184805F0DEFFB7E7124B5B780E4A114974
:104A90009B000B445B6813600E4B5B7801330D4A3F
:104AA000927893FBF2F101FB02F29B1ADAB2094B06
:104AB0005A700D4A0F2109480AF04EF89CE700BFD2
:104AC0003401002000040240C00400203501002011
:104AD000780500208C04002018020108C40400207E
:104AE00020020108080400202802010880B582B0D5
:104AF00000AF78609C4B1B78022B04D04FF47A7087
:104B000007F0D6F8F6E7994B5B88142B00F081800C
:104B10001E2B40F00681964BD3ED3D7A9FED957AA2
:104B2000F4EEC77AF1EE10FA01DD732312E0904B38
:104B3000D3ED3D7A9FED907AF4EEC77AF1EE10FA5C
:104B400001D5322306E08A4BD3ED3D7AFCEEE77ABD
:104B500017EE903A894A126813644FF4967001F088
:104B6000CDFD834BD3F8F830854A1360804B93F822
:104B7000FC30002B0CBF01230023DBB21A460421BA
:104B8000804802F01FFD7A4B93F8FC30002B14BFD5
:104B900001230023DBB21A4608217A4802F012FDF5
:104BA000734B93F8FC30002B0CBF01230023DBB2C6
:104BB0001A462021734802F005FD6D4B93F8FC3036
:104BC000002B14BF01230023DBB21A4610216D48CD
:104BD00002F0F8FC664BB3F8F0206B4B1B685A638D
:104BE000634BB3F8F220684B1B689A636448FEF786
:104BF00093FB0A2007F05CF8644B4FF081421A6087
:104C0000002200216148FDF723FF0A2007F050F839
:104C100026E15E4B5E4A1A60002200215B48FDF7E8
:104C200017FF0A2007F044F8514BD3ED2D7A9FED82
:104C3000517AF4EEC77AF1EE10FA01DD732312E037
:104C40004B4BD3ED2D7A9FED4C7AF4EEC77AF1EE13
:104C500010FA01D5322306E0454BD3ED2D7AFCEE58
:104C6000E77A17EE903A454A126813644FF496704B
:104C700001F044FD3E4BD3F8B830414A13603C4B41
:104C800093F8BC30002B0CBF01230023DBB21A4683
:104C900004213C4802F096FC354B93F8BC30002BC5
:104CA00014BF01230023DBB21A460821354802F065
:104CB00089FC2F4B93F8BC30002B0CBF0123002341
:104CC000DBB21A4620212F4802F07CFC284B93F8D7
:104CD000BC30002B14BF01230023DBB21A46102185
:104CE000284802F06FFC224BB3F8B020264B1B681B
:104CF0005A631F4BB3F8B220234B1B689A632048BA
:104D0000FEF70AFB0A2006F0D3FF204B214A1A6067
:104D1000002200211D48FDF79BFE142006F0C8FF6D
:104D20009EE01A4B1A4A1A60002200211748FDF72C
:104D30008FFE0A2006F0BCFF0D4BD3ED1D7A9FEDD0
:104D40000D7AF4EEC77AF1EE10FA01DD73232AE052
:104D5000074BD3ED1D7A9FED087AF4EEC77AF1EE9A
:104D600010FA19D532231EE034010020C0040020BF
:104D7000040000200000E64200004842A00200209B
:104D8000E804002000000240C0030020FC040020D2
:104D9000000008410000BC40504BD3ED1D7AFCEEF2
:104DA000E77A17EE903A4E4A126813644FF4967001
:104DB00001F0A4FC494B9B6F4A4A1360474B93F8A0
:104DC0007C30002B0CBF01230023DBB21A460421E8
:104DD000454802F0F7FB414B93F87C30002B14BFA1
:104DE00001230023DBB21A4608213F4802F0EAFB08
:104DF0003A4B93F87C30002B0CBF01230023DBB22D
:104E00001A462021384802F0DDFB344B93F87C3001
:104E1000002B14BF01230023DBB21A4610213248B5
:104E200002F0D0FB2D4BB3F87020304B1B685A6357
:104E30002A4BB3F872202D4B1B689A632948FEF762
:104E40006BFA0A2006F034FF294B2A4A1A60002226
:104E500000212748FDF7FCFD0A2006F029FF00BFCE
:104E6000254B00221A60254B1A78254B1A70234BCC
:104E70000B221A70234B1A78224B5B789A4212D17C
:104E8000214B64221A70204B00225A801F4A0F21A6
:104E90001F4809F061FE4FF6FF7306221D491E48A8
:104EA00005F0CFFD26E6174B5B78174A15499B00A6
:104EB0000B445B681360134B5B780133114A9278A3
:104EC00093FBF2F101FB02F29B1ADAB20D4B5A701E
:104ED000124A0F210E4809F03FFE0BE604000020A5
:104EE000A0020020E804002000000240C0030020CF
:104EF000FC0400200000B8407805002034010020A8
:104F0000350100208C040020C00400201802010894
:104F1000C40400202002010808040020280201081F
:104F200080B582B000AF78609D4B1B78032B04D016
:104F30004FF47A7006F0BCFEF6E79A4B5B88142BB0
:104F400000F081801E2B40F00781974BD3ED417A12
:104F50009FED967AF4EEC77AF1EE10FA01DD732335
:104F600012E0914BD3ED417A9FED917AF4EEC77A3E
:104F7000F1EE10FA01D5322306E08B4BD3ED417AE6
:104F8000FCEEE77A17EE903A8A4A126813644FF4FF
:104F9000967001F0B3FB844BD3F80831864A136056
:104FA000814B93F80C31002B0CBF01230023DBB2A3
:104FB0001A460421814802F005FB7B4B93F80C3123
:104FC000002B14BF01230023DBB21A4608217B48C3
:104FD00002F0F8FA744B93F80C31002B0CBF01234C
:104FE0000023DBB21A462021744802F0EBFA6E4B24
:104FF00093F80C31002B14BF01230023DBB21A46B7
:1050000010216E4802F0DEFA674BB3F800216C4BBA
:105010001B685A63644BB3F80221694B1B689A639F
:105020006548FEF779F90A2006F042FE654B4FF01D
:1050300081421A60002200216248FDF709FD0A2022
:1050400006F036FE29E15F4B5F4A1A60002200211C
:105050005C48FDF7FDFC0A2006F02AFE524BD3ED1A
:10506000317A9FED527AF4EEC77AF1EE10FA01DD53
:10507000732312E04C4BD3ED317A9FED4D7AF4EE71
:10508000C77AF1EE10FA01D5322306E0464BD3ED94
:10509000317AFCEEE77A17EE903A464A12681364CA
:1050A0004FF4967001F02AFB3F4BD3F8C830424AC8
:1050B00013603D4B93F8CC30002B0CBF0123002331
:1050C000DBB21A4604213D4802F07CFA364B93F8D5
:1050D000CC30002B14BF01230023DBB21A46082179
:1050E000364802F06FFA304B93F8CC30002B0CBFEF
:1050F00001230023DBB21A462021304802F062FA75
:10510000294B93F8CC30002B14BF01230023DBB2D2
:105110001A461021294802F055FA234BB3F8C02053
:10512000274B1B685A63204BB3F8C220244B1B68E3
:105130009A632148FEF7F0F80A2006F0B9FD214BEA
:105140004FF082421A60002200211E48FDF780FCC9
:10515000142006F0ADFDA0E01A4B1C4A1A60002294
:1051600000211848FDF774FC0A2006F0A1FD0E4B43
:10517000D3ED217A9FED0D7AF4EEC77AF1EE10FAB5
:1051800001DD73232BE0084BD3ED217A9FED087AE4
:10519000F4EEC77AF1EE10FA1AD532231FE000BF01
:1051A00034010020C0040020040000200000E6427A
:1051B00000004842A0020020E80400200000024055
:1051C000C0030020FC040020333323410000D04002
:1051D000514BD3ED217AFCEEE77A17EE903A4F4A25
:1051E000126813644FF4967001F088FA4A4BD3F8B2
:1051F00088304B4A1360484B93F88C30002B0CBF1F
:1052000001230023DBB21A460421464802F0DAF9F2
:10521000414B93F88C30002B14BF01230023DBB2E9
:105220001A4608213F4802F0CDF93B4B93F88C30E9
:10523000002B0CBF01230023DBB21A462021394882
:1052400002F0C0F9344B93F88C30002B14BF0123CB
:105250000023DBB21A461021324802F0B3F92E4B7C
:10526000B3F88020304B1B685A632B4BB3F8822075
:105270002D4B1B689A632A48FEF74EF80A2006F069
:1052800017FD2A4B2A4A1A60002200212748FDF701
:10529000DFFB0A2006F00CFD00BF264B00221A603F
:1052A000254B1A78254B1A70234B0B221A70244B6E
:1052B0001A78234B5B789A4212D1224B64221A70DF
:1052C000204B00225A80204A0F21204809F044FC3C
:1052D0004FF6FF7306221E491E4805F0B2FB23E677
:1052E000174B5B78174A16499B000B445B681360A9
:1052F000134B5B780133124A927893FBF2F101FB76
:1053000002F29B1ADAB20E4B5A70134A0F210F4861
:1053100009F022FC08E600BF04000020A0020020E3
:10532000E804002000000240C0030020FC0400202C
:105330000000D04078050020340100203501002015
:105340008C040020C004002018020108C4040020BE
:1053500020020108080400202802010880B582B05C
:1053600000AF78609B4B1B78042B04D04FF47A700D
:1053700006F09EFCF6E7984B5B88142B7FD01E2B23
:1053800040F00581954BD3ED457A9FED957AF4EE8B
:10539000C77AF1EE10FA01DD732312E08F4BD3EDE3
:1053A000457A9FED907AF4EEC77AF1EE10FA01D5C6
:1053B000322306E0894BD3ED457AFCEEE77A17EE0F
:1053C000903A894A126813644FF4967001F096F986
:1053D000824BD3F81831854A1360804B93F81C3107
:1053E000002B0CBF01230023DBB21A4604218048A6
:1053F00002F0E8F8794B93F81C31002B14BF01231D
:105400000023DBB21A460821794802F0DBF8734B1F
:1054100093F81C31002B0CBF01230023DBB21A468A
:105420002021734802F0CEF86C4B93F81C31002B0E
:1054300014BF01230023DBB21A4610216C4802F08E
:10544000C1F8664BB3F810216A4B1B685A63634B73
:10545000B3F81221674B1B689A636448FDF75CFF41
:105460000A2006F025FC644B644A1A6000220021E1
:105470006148FDF7EDFA0A2006F01AFC2BE15E4BBD
:105480005F4A1A60002201215B48FDF7E1FA0A2019
:1054900006F00EFC514BD3ED357A9FED517AF4EEC8
:1054A000C77AF1EE10FA01DD732312E04B4BD3ED16
:1054B000357A9FED4C7AF4EEC77AF1EE10FA01D509
:1054C000322306E0454BD3ED357AFCEEE77A17EE52
:1054D000903A454A126813644FF4967001F00EF941
:1054E0003E4BD3F8D830414A13603C4B93F8DC3044
:1054F000002B0CBF01230023DBB21A4604213C48D9
:1055000002F060F8354B93F8DC30002B14BF012318
:105510000023DBB21A460821354802F053F82F4B1E
:1055200093F8DC30002B0CBF01230023DBB21A46BA
:1055300020212F4802F046F8284B93F8DC30002B4E
:1055400014BF01230023DBB21A461021284802F0C1
:1055500039F8224BB3F8D020264B1B685A631F4BF7
:10556000B3F8D220234B1B689A632048FDF7D4FE82
:105570000A2006F09DFB204B224A1A6000220121DE
:105580001D48FDF765FA142006F092FBA3E01A4BC4
:105590001D4A1A60002201211748FDF759FA0A2016
:1055A00006F086FB0D4BD3ED257A9FED0D7AF4EED8
:1055B000C77AF1EE10FA01DD73232EE0074BD3ED2D
:1055C000257A9FED087AF4EEC77AF1EE10FA1DD530
:1055D000322322E034010020C00400200400002017
:1055E0000000E64200004842A0020020E80400203B
:1055F00000000240C0030020FC0400200000904096
:105600000000E03F0000E04033339340514BD3EDC6
:10561000257AFCEEE77A17EE903A4F4A1268136447
:105620004FF4967001F06AF84A4BD3F898304B4A21
:105630001360484B93F89C30002B0CBF01230023D0
:10564000DBB21A460421464801F0BCFF414B93F8F7
:105650009C30002B14BF01230023DBB21A46082123
:105660003F4801F0AFFF3B4B93F89C30002B0CBF41
:1056700001230023DBB21A462021394801F0A2FFA2
:10568000344B93F89C30002B14BF01230023DBB272
:105690001A461021324801F095FF2E4BB3F89020A6
:1056A000304B1B685A632B4BB3F892202D4B1B6871
:1056B0009A632A48FDF730FE0A2006F0F9FA2A4BD1
:1056C0002A4A1A60002201212748FDF7C1F90A2061
:1056D00006F0EEFA00BF264B00221A60254B1A781E
:1056E000254B1A70234B0B221A70244B1A78234B2C
:1056F0005B789A4212D1224B64221A70204B00220E
:105700005A80204A0F21204809F026FA4FF6FF73ED
:1057100006221E491E4805F094F923E6174B5B78D4
:10572000174A16499B000B445B681360134B5B7868
:105730000133124A927893FBF2F101FB02F29B1AB9
:10574000DAB20E4B5A70134A0F210F4809F004FACF
:1057500008E600BF04000020A0020020E8040020AA
:1057600000000240C0030020FC0400200000D040E4
:105770007805002034010020350100208C04002031
:10578000C004002018020108C404002020020108FF
:10579000080400202802010880B582B000AF7860BC
:1057A0009C4B1B78052B04D04FF47A7006F080FADE
:1057B000F6E7994B5B88142B7FD01E2B40F00681B7
:1057C000964BD3ED497A9FED967AF4EEC77AF1EED7
:1057D00010FA01DD732312E0904BD3ED497A9FED6F
:1057E000917AF4EEC77AF1EE10FA01D5322306E091
:1057F0008A4BD3ED497AFCEEE77A17EE903A8A4A63
:10580000126813644FF4967000F078FF834BD3F85E
:105810002831864A1360814B93F82C31002B0CBF42
:1058200001230023DBB21A460421814801F0CAFE9D
:105830007A4B93F82C31002B14BF01230023DBB2E9
:105840001A4608217A4801F0BDFE744B93F82C31BA
:10585000002B0CBF01230023DBB21A462021744821
:1058600001F0B0FE6D4B93F82C31002B14BF0123D7
:105870000023DBB21A4610216D4801F0A3FE674BEE
:10588000B3F820216B4B1B685A63644BB3F8222199
:10589000684B1B689A636548FDF73EFD0A2006F0D9
:1058A00007FA654B654A1A60002200216248FDF73D
:1058B000CFF80A2006F0FCF92BE15F4B4FF0824253
:1058C0001A60002201215C48FDF7C2F80A2006F0A8
:1058D000EFF9524BD3ED397A9FED517AF4EEC77A56
:1058E000F1EE10FA01DD732312E04C4BD3ED397A5F
:1058F0009FED4C7AF4EEC77AF1EE10FA01D532231F
:1059000006E0464BD3ED397AFCEEE77A17EE903A93
:10591000454A126813644FF4967000F0EFFE3F4B57
:10592000D3F8E830414A13603C4B93F8EC30002B3D
:105930000CBF01230023DBB21A4604213C4801F0CE
:1059400041FE364B93F8EC30002B14BF01230023AB
:10595000DBB21A460821364801F034FE2F4B93F88B
:10596000EC30002B0CBF01230023DBB21A462021B0
:105970002F4801F027FE294B93F8EC30002B14BF81
:1059800001230023DBB21A461021294801F01AFE38
:10599000224BB3F8E020274B1B685A631F4BB3F828
:1059A000E220244B1B689A632048FDF7B5FC0A20CF
:1059B00006F07EF9204B224A1A60002201211E487F
:1059C000FDF746F8142006F073F9A2E01A4B1D4AC1
:1059D0001A60002201211848FDF73AF80A2006F063
:1059E00067F90E4BD3ED297A9FED0D7AF4EEC77A65
:1059F000F1EE10FA01DD73232DE0084BD3ED297A87
:105A00009FED087AF4EEC77AF1EE10FA1CD5322336
:105A100021E000BF34010020C00400200400002069
:105A20000000E64200004842A0020020E8040020F6
:105A300000000240C0030020FC0400200000A04041
:105A4000000030410000D040514BD3ED297AFCEEEC
:105A5000E77A17EE903A4F4A126813644FF4967043
:105A600000F04CFE4A4BD3F8A8304B4A1360484B29
:105A700093F8AC30002B0CBF01230023DBB21A4695
:105A80000421464801F09EFD414B93F8AC30002BB9
:105A900014BF01230023DBB21A4608213F4801F05E
:105AA00091FD3B4B93F8AC30002B0CBF012300233E
:105AB000DBB21A462021394801F084FD344B93F8BB
:105AC000AC30002B14BF01230023DBB21A46102197
:105AD000324801F077FD2E4BB3F8A020304B1B6805
