:020000040800F2
:1000000000000220ED490008D9480008DB4800083C
:10001000DD480008DF480008E14800080000000053
:10002000000000000000000000000000318900080E
:10003000E348000800000000C1890008E548000806
:100040003D4A00083D4A00083D4A00083D4A000874
:100050003D4A00083D4A00083D4A00083D4A000864
:100060003D4A00083D4A00083D4A00083D4A000854
:100070003D4A00083D4A00083D4A00083D4A000844
:100080003D4A00083D4A00083D4A00083D4A000834
:100090003D4A00083D4A00083D4A0008FD48000866
:1000A0003D4A0008054900083D4A00083D4A00084D
:1000B0003D4A00083D4A0008114900083D4A000831
:1000C0003D4A00083D4A00083D4A00083D4A0008F4
:1000D0003D4A00083D4A00083D4A00081D49000805
:1000E0003D4A00083D4A00083D4A00083D4A0008D4
:1000F0003D4A00083D4A00083D4A00083D4A0008C4
:100100003D4A00083D4A00083D4A00083D4A0008B3
:100110003D4A00083D4A00083D4A00083D4A0008A3
:100120003D4A00083D4A00083D4A00083D4A000893
:100130003D4A00083D4A00083D4A00083D4A000883
:100140003D4A00083D4A00083D4A00083D4A000873
:100150003D4A00083D4A00083D4A00083D4A000863
:100160003D4A00083D4A00083D4A00083D4A000853
:100170003D4A00083D4A00083D4A000800000000D2
:080180003D4A00083D4A000859
:1001900010B5054C237833B9044B13B10448AFF3C1
:1001A00000800123237010BD140300200000000014
:1001B00058CB000808B5034B1BB103490348AFF304
:1001C000008008BD000000001803002058CB000884
:1001D00001F0FF01102A2BDB10F0070F08D010F8F8
:1001E000013B013A8B422DD010F0070F42B3F6D1FC
:1001F000F0B441EA012141EA014122F007047FF015
:1002000000070023F0E80256083C85EA010586EA6B
:10021000010685FA47F5A3FA87F586FA47F6A5FAA7
:1002200087F68EB9EED1F0BC01F0FF0102F00702B3
:1002300032B110F8013B013A83EA010313B1F8D15E
:100240000020704701387047002D06BF354603383F
:10025000073815F0010F07D1013015F4807F02BF78
:10026000013015F4C03F0130F0BC0138704700BFC9
:10027000034613F8012B002AFBD1181A01387047E6
:1002800081F0004102E000BF83F0004330B54FEA47
:1002900041044FEA430594EA050F08BF90EA020FB4
:1002A0001FBF54EA000C55EA020C7FEA645C7FEA47
:1002B000655C00F0E2804FEA5454D4EB5555B8BF6A
:1002C0006D420CDD2C4480EA020281EA030382EADB
:1002D000000083EA010180EA020281EA0303362D6D
:1002E00088BF30BD11F0004F4FEA01314FF4801C40
:1002F0004CEA113102D0404261EB410113F0004F52
:100300004FEA03334CEA133302D0524263EB430308
:1003100094EA050F00F0A780A4F10104D5F1200EA6
:100320000DDB02FA0EFC22FA05F2801841F1000101
:1003300003FA0EF2801843FA05F359410EE0A5F1D5
:1003400020050EF1200E012A03FA0EFC28BF4CF006
:10035000020C43FA05F3C01851EBE37101F00045BC
:1003600007D54FF0000EDCF1000C7EEB00006EEBC9
:100370000101B1F5801F1BD3B1F5001F0CD3490853
:100380005FEA30004FEA3C0C04F101044FEA4452AA
:1003900012F5800F80F09A80BCF1004F08BF5FEA31
:1003A000500C50F1000041EB045141EA050130BD11
:1003B0005FEA4C0C404141EB0101013C28BFB1F523
:1003C000801FE9D291F0000F04BF01460020B1FA6E
:1003D00081F308BF2033A3F10B03B3F120020CDA41
:1003E0000C3208DD02F1140CC2F10C0201FA0CF01F
:1003F00021FA02F10CE002F11402D8BFC2F1200C84
:1004000001FA02F120FA0CFCDCBF41EA0C01904039
:10041000E41AA2BF01EB0451294330BD6FEA040482
:100420001F3C1CDA0C340EDC04F11404C4F120026D
:1004300020FA04F001FA02F340EA030021FA04F37F
:1004400045EA030130BDC4F10C04C4F1200220FAD6
:1004500002F001FA04F340EA0300294630BD21FA14
:1004600004F0294630BD94F0000F83F4801306BFDA
:1004700081F480110134013D4EE77FEA645C18BFCE
:100480007FEA655C29D094EA050F08BF90EA020F65
:1004900005D054EA000C04BF1946104630BD91EA5D
:1004A000030F1EBF0021002030BD5FEA545C05D160
:1004B0004000494128BF41F0004130BD14F580049F
:1004C0003CBF01F5801130BD01F0004545F0FE4113
:1004D00041F470014FF0000030BD7FEA645C1ABF48
:1004E000194610467FEA655C1CBF0B46024650EA7F
:1004F000013406BF52EA033591EA030F41F40021AB
:1005000030BD00BF90F0000F04BF0021704730B530
:100510004FF4806404F132044FF000054FF0000105
:1005200050E700BF90F0000F04BF0021704730B5C6
:100530004FF4806404F1320410F0004548BF40429B
:100540004FF000013EE700BF42004FEAE2014FEAF0
:1005500031014FEA02701FBF12F07F4393F07F4FCB
:1005600081F06051704732F07F4208BF704793F0CE
:100570007F4F04BF41F40021704730B54FF46074E1
:1005800001F0004521F000411CE700BF50EA0102E4
:1005900008BF704730B54FF000050AE050EA01028D
:1005A00008BF704730B511F0004502D5404261EBFD
:1005B00041014FF4806404F132045FEA915C3FF43E
:1005C000D8AE4FF003025FEADC0C18BF03325FEADB
:1005D000DC0C18BF033202EBDC02C2F1200300FA8C
:1005E00003FC20FA02F001FA03FE40EA0E0021FAB1
:1005F00002F11444BDE600BF70B54FF0FF0C4CF49F
:10060000E06C1CEA11541DBF1CEA135594EA0C0F50
:1006100095EA0C0F00F0DEF82C4481EA030621EA8B
:100620004C5123EA4C5350EA013518BF52EA0335C6
:1006300041F4801143F4801338D0A0FB02CE4FF078
:100640000005E1FB02E506F00042E0FB03E54FF0A8
:100650000006E1FB03569CF0000F18BF4EF0010EA0
:10066000A4F1FF04B6F5007F64F5407404D25FEA9C
:100670004E0E6D4146EB060642EAC62141EA55514F
:100680004FEAC52040EA5E504FEACE2EB4F1FD0C91
:1006900088BFBCF5E06F1ED8BEF1004F08BF5FEA0F
:1006A000500E50F1000041EB045170BD06F00046C1
:1006B00046EA010140EA020081EA0301B4EB5C046E
:1006C000C2BFD4EB0C0541EA045170BD41F4801166
:1006D0004FF0000E013C00F3AB8014F1360FDEBF8B
:1006E000002001F0004170BDC4F10004203C35DA67
:1006F0000C341BDC04F11404C4F1200500FA05F3EA
:1007000020FA04F001FA05F240EA020001F000428A
:1007100021F0004110EBD37021FA04F642EB060100
:100720005EEA430E08BF20EAD37070BDC4F10C042A
:10073000C4F1200500FA04F320FA05F001FA04F2EE
:1007400040EA020001F0004110EBD37041F10001DA
:100750005EEA430E08BF20EAD37070BDC4F12005E5
:1007600000FA05F24EEA020E20FA04F301FA05F24D
:1007700043EA020321FA04F001F0004121FA04F2F5
:1007800020EA020000EBD3705EEA430E08BF20EAC5
:10079000D37070BD94F0000F0FD101F000464000FF
:1007A00041EB010111F4801F08BF013CF7D041EA81
:1007B000060195F0000F18BF704703F00046520085
:1007C00043EB030313F4801F08BF013DF7D043EA56
:1007D0000603704794EA0C0F0CEA135518BF95EA0C
:1007E0000C0F0CD050EA410618BF52EA4306D1D193
:1007F00081EA030101F000414FF0000070BD50EAB2
:10080000410606BF1046194652EA430619D094EA3B
:100810000C0F02D150EA013613D195EA0C0F05D125
:1008200052EA03361CBF104619460AD181EA030179
:1008300001F0004141F0FE4141F470014FF0000031
:1008400070BD41F0FE4141F4780170BD70B54FF0CC
:10085000FF0C4CF4E06C1CEA11541DBF1CEA13554C
:1008600094EA0C0F95EA0C0F00F0A7F8A4EB05042E
:1008700081EA030E52EA03354FEA013100F0888025
:100880004FEA03334FF0805545EA131343EA1263EE
:100890004FEA022245EA111545EA10654FEA0026A3
:1008A0000EF000419D4208BF964244F1FD0404F55C
:1008B000407402D25B084FEA3202B61A65EB0305B8
:1008C0005B084FEA32024FF480104FF4002CB6EB75
:1008D000020E75EB030E22BFB61A754640EA0C00F5
:1008E0005B084FEA3202B6EB020E75EB030E22BF35
:1008F000B61A754640EA5C005B084FEA3202B6EB76
:10090000020E75EB030E22BFB61A754640EA9C0034
:100910005B084FEA3202B6EB020E75EB030E22BF04
:10092000B61A754640EADC0055EA060E18D04FEAC2
:10093000051545EA16754FEA06164FEAC30343EA62
:1009400052734FEAC2025FEA1C1CC0D111F4801F2F
:100950000BD141EA00014FF000004FF0004CB6E728
:1009600011F4801F04BF01430020B4F1FD0C88BFC7
:10097000BCF5E06F3FF6AFAEB5EB030C04BFB6EBD2
:10098000020C5FEA500C50F1000041EB045170BDC5
:100990000EF0004E4EEA113114EB5C04C2BFD4EBF2
:1009A0000C0541EA045170BD41F480114FF0000E76
:1009B000013C90E645EA060E8DE60CEA135594EAF2
:1009C0000C0F08BF95EA0C0F3FF43BAF94EA0C0FF5
:1009D0000AD150EA01347FF434AF95EA0C0F7FF46A
:1009E00025AF104619462CE795EA0C0F06D152EABE
:1009F00003353FF4FDAE1046194622E750EA4106A2
:100A000018BF52EA43067FF4C5AE50EA41047FF4B2
:100A10000DAF52EA43057FF4EBAE12E74FF0FF3C17
:100A200006E000BF4FF0010C02E000BF4FF0010CE8
:100A30004DF804CD4FEA410C7FEA6C5C4FEA430C61
:100A400018BF7FEA6C5C1BD001B050EA410C0CBFB0
:100A500052EA430C91EA030F02BF90EA020F002012
:100A6000704710F1000F91EA030F58BF994208BF79
:100A700090422CBFD8176FEAE37040F00100704736
:100A80004FEA410C7FEA6C5C02D150EA013C07D18D
:100A90004FEA430C7FEA6C5CD6D152EA033CD3D0D8
:100AA0005DF8040B704700BF8446104662468C46D2
:100AB0001946634600E000BF01B5FFF7B7FF002805
:100AC00048BF10F1000F01BD4DF808EDFFF7F4FF2E
:100AD0000CBF012000205DF808FB00BF4DF808EDB9
:100AE000FFF7EAFF34BF012000205DF808FB00BFDC
:100AF0004DF808EDFFF7E0FF94BF012000205DF8FE
:100B000008FB00BF4DF808EDFFF7CEFF94BF0120B2
:100B100000205DF808FB00BF4DF808EDFFF7C4FFAB
:100B200034BF012000205DF808FB00BF4FEA410CF4
:100B30007FEA6C5C02D150EA013C0AD14FEA430CD7
:100B40007FEA6C5C02D152EA033C02D14FF0000014
:100B500070474FF0010070474FEA410212F5001252
:100B600015D211D56FF47873B3EB625212D94FEAF4
:100B7000C12343F0004343EA505311F0004F23FADE
:100B800002F018BF404270474FF00000704750EA33
:100B9000013005D111F0004008BF6FF000407047F0
:100BA0004FF00000704700BF4A0011D212F500124A
:100BB00011D20DD56FF47873B3EB62520ED44FEAB5
:100BC000C12343F0004343EA505323FA02F0704735
:100BD0004FF00000704750EA013002D14FF0FF3073
:100BE00070474FF0000070474FEA4102B2F1E04316
:100BF00024BFB3F5001CDCF1FE5C0DD901F0004C04
:100C00004FEAC0024CEA5070B2F1004F40EB830053
:100C100008BF20F00100704711F0804F21D113F17F
:100C20003872BCBF01F00040704741F480114FEAB8
:100C30005252C2F11802C2F1200C10FA0CF320FA41
:100C400002F018BF40F001004FEAC1234FEAD3235E
:100C500003FA0CFC40EA0C0023FA02F34FEA4303C8
:100C6000CCE77FEA625307D150EA01331EBF4FF051
:100C7000FE4040F44000704701F0004040F0FE406C
:100C800040F40000704700BF53B94AB9002908BFBB
:100C900000281CBF4FF0FF314FF0FF3000F070B95B
:100CA000ADF1080C6DE904CE00F006F8DDF804E0C3
:100CB000DDE9022304B070472DE9F047089E0D4698
:100CC00004460F46002B4AD18A42944665D9B2FAAF
:100CD00082F343B102FA03FCC3F120029F4020FAE1
:100CE00002F217439C404FEA1C4E1FFA8CF5B7FBEB
:100CF000FEF1220C0EFB117742EA074201FB05F0E0
:100D000090420AD91CEB020201F1FF3780F01C81EE
:100D1000904240F2198102396244121AA4B2B2FB25
:100D2000FEF00EFB102244EA024400FB05F5A5424A
:100D30000AD91CEB040400F1FF3280F00781A542C0
:100D400040F204816444023840EA0140641B0021FF
:100D50001EB1DC400023C6E90043BDE8F0878B42AA
:100D600008D9002E00F0ED800021C6E900050846F4
:100D7000BDE8F087B3FA83F1002949D1AB4202D331
:100D8000824200F2F880841A65EB030201201746C4
:100D9000002EE2D0C6E90047DFE702B9FFDEB2FA73
:100DA00082F3002B40F090808A1A4FEA1C471FFA0A
:100DB0008CFE0121B2FBF7F507FB1520220C42EA5D
:100DC00000420EFB05F0904208D91CEB020205F12F
:100DD000FF3802D2904200F2CB804546121AA4B2EC
:100DE000B2FBF7F007FB102244EA02440EFB00FEC0
:100DF000A64508D91CEB040400F1FF3202D2A64537
:100E000000F2BB801046A4EB0E0440EA05409FE7C9
:100E1000C1F120078B4022FA07FC4CEA030C05FACB
:100E200001F420FA07F3FD404FEA1C492343B5FBC8
:100E3000F9F81FFA8CFE09FB18551C0C44EA05440E
:100E400008FB0EF5A54202FA01F200FA01F00BD9F7
:100E50001CEB040408F1FF3A80F08880A54240F2C0
:100E60008580A8F102086444641B9DB2B4FBF9F3C9
:100E700009FB134445EA044403FB0EFEA64508D9CA
:100E80001CEB040403F1FF356CD2A6456AD9023B82
:100E9000644443EA0843A3FB0295A4EB0E04AC426E
:100EA000C846AE4656D353D056B1B0EB080264EBF9
:100EB0000E0404FA07F7CA40CC401743C6E9007491
:100EC00018460021BDE8F087C3F1200102FA03FCB7
:100ED00020FA01F225FA01F19D402A434FEA1C470E
:100EE0001FFA8CFEB1FBF7F007FB1015110C41EA5D
:100EF000054100FB0EF58D4204FA03F408D91CEB02
:100F0000010100F1FF382FD28D422DD90238614402
:100F1000491B92B2B1FBF7F507FB151142EA0142FA
:100F200005FB0EF1914208D91CEB020205F1FF38D6
:100F300016D2914214D9023D6244521A45EA004148
:100F400038E73146304608E73946E6E61046FBE624
:100F50004845A9D2B9EB020865EB0C0E013BA3E7AB
:100F60004546EAE72B4694E74046D1E7D0467BE783
:100F7000023D624432E708460AE76444023842E729
:100F8000704700BF08B5274D274E2B780A2B1DD17F
:100F9000264C6188F9B9264B2A781A700B23254A0A
:100FA0002B70254B107819605378984229D164230F
:100FB000618022482249237008F081FE214922489D
:100FC0004FF6FF73062205F0C1FFDEE74FF47A709B
:100FD00006F061FAD9E701224FF48061304604F04F
:100FE00057F9642006F057FA00224FF4806130462A
:100FF00004F04EF9642006F04EFA6388013B6380EA
:10100000C7E702EB83010133496821609178B3FBA4
:10101000F1F001FB10330D490848537008F04FFE02
:10102000B3E700BF3401002000040240C4030020E5
:101030003701002074030020B8030020D6060020EA
:1010400070CB000876CB0008280600207DCB000876
:101050000FF25809D9E9008980B5114C114F0026CB
:10106000204603F0F7FD1421204603F098FE2046A9
:1010700003F0E8FEFFF746FA42464B46FFF7E6FB71
:1010800032463B46FFF7B8FAFFF7AEFD064B186055
:10109000204603F069FE47F2305006F0FCF9DFE726
:1010A00024040020000059406C030020BCE9961D78
:1010B0000237964008B51A4D1A4CD5ED007A1A4AF7
:1010C000FDEEE77A102117EE903A204608F0BAFCC0
:1010D000164B174AD3ED007AFDEEE77A102117EE92
:1010E000903A204608F0AEFC22461421002007F07A
:1010F0009BFF104B104AD3ED007AFDEEE77A1021EA
:1011000017EE903A204608F09DFC22461E21002052
:1011100007F08AFF07F0F8FEFA2006F0BCF9CCE7EA
:101120006C030020A803002083CB00088406002065
:101130008ACB00088806002092CB0008000000003F
:1011400038B5037F022B044612D1254D2B7883B985
:10115000042105F063F8234B186001232B702368EA
:101160001A6A22F0A0021A621A6A42F020021A6277
:1011700038BD012BFCD1042105F050F81A4B186042
:10118000236800225A62174B1B6898429BBFC3F525
:101190007F43FF33C01AC018FFF7B4F90EA3D3E999
:1011A0000023FFF729FA114B0022FFF725FAFFF77A
:1011B0001BFD0F4B186000232B7023681A6A22F066
:1011C000A0021A621A6A1A620A4B1A68D36823F0DC
:1011D0000403D360CCE700BF9CC420B07268A13F79
:1011E0005003002044030020480300200000E03F9B
:1011F000880600209805002000B595B02C2200211B
:1012000009A808F015FD1422002103A808F010FD1C
:101210000023194A0193116C41F080511164126C42
:1012200002F080520192019A144A0293116841F42B
:101230008041116012680E9302F480420292029A79
:101240000222089201201022CDE90B0208A804F026
:1012500069FC014608B172B6FEE70F23CDE9033001
:10126000CDE90500079003A804F036FE08B172B678
:10127000FEE715B05DF804FB003802400070004046
:10128000F0B59DB003F000FCFFF7B6FF142200217B
:1012900013A808F0CDFC0024AA4B01941A6BAA48AD
:1012A00042F010021A631A6B02F010020192019AC6
:1012B00002941A6B42F004021A631A6B02F00402E1
:1012C0000292029A03941A6B42F001021A631A6B9B
:1012D00002F001020392039A04941A6B42F0020294
:1012E0001A631A6B02F002020492049A05941A6BB4
:1012F00042F008021A631B6B03F0080305932246B1
:101300004FF4BC61059B03F0C3FF904822463C218B
:1013100003F0BEFF22468E484FF4826103F0B8FF0F
:1013200001264FF4BC63884813A9CDE91336CDE9F3
:10133000154403F0D3FE3C23CDE9133683481594BE
:10134000022313A9169303F0C9FE4FF48263804869
:1013500013A9CDE913364FF48075CDE9154403F098
:10136000BDFE4FF404137B48159413A9CDE9135324
:1013700003F0B4FE22460521172003F009FE1720D2
:1013800003F038FE1022214608A808F051FC1C2268
:1013900021460CA8CDE9064408F04AFC202221464B
:1013A00013A808F045FC6C4D6C4BAC60C5E90034EB
:1013B000284641F61F43C5E90334C5E9054405F055
:1013C0004FF808B172B6FEE74FF4805308A92846DB
:1013D000089305F086FA08B172B6FEE7284605F0D4
:1013E0006BF808B172B6FEE7CDE9060006A92846FB
:1013F00005F056FC024608B172B6FEE76023CDE95F
:101400000C30CDE90E00CDE9100012900CA9284651
:1014100005F034F908B172B6FEE704220CA928469B
:1014200005F02CF908B172B6FEE7CDE91300CDE95D
:10143000150017904FF400531A9013A928461893DB
:1014400005F06CFC044608B172B6FEE7444D014657
:101450001C2214A808F0ECFB4FF08043C5E90034CF
:101460004FF6FF73C5E903340323139313A90A232B
:101470002846CDE90C44AC60AC61159617931996DB
:101480001B9305F071F808B172B6FEE7CDE90C00C8
:101490000CA9284605F004FC08B172B6FEE7314BF2
:1014A000314C18614FF4E132C3E900420C22C3E928
:1014B0000200C3E90520D861184605F019FD08B1FE
:1014C00072B6FEE700251022002108A808F0B0FB44
:1014D0001C2229460CA8CDE9065508F0A9FB2022BC
:1014E000294613A808F0A4FB204C2148A5604FF41E
:1014F000A073C4E900034FF47A73C4E903352046AE
:1015000080236561A36104F0ABFF08B172B6FEE70A
:101510004FF4805308A92046089305F0E2F908B17A
:1015200072B6FEE7204604F0C7FF08B172B6FEE7C8
:10153000CDE9060006A9204605F0B2FBD0B172B68F
:10154000FEE700BF003802400010024000000240E9
:1015500000040240000C0240E005002000040140AD
:10156000080500202806002000480040C004002094
:10157000000001406023CDE90C30CDE910000E9051
:1015800012900C220CA9204605F078F808B172B62A
:10159000FEE7CDE91300CDE9150017904FF4005395
:1015A0001A9013A92046189305F0B8FB054608B118
:1015B00072B6FEE7204603F01BF929461C2214A848
:1015C00008F036FB5B4F5C4BBD60C7E900354FF65A
:1015D000FF73C7E9033503230126139313A90A23D5
:1015E0003846CDE90C55BD611596179319961B9396
:1015F00004F0BAFF08B172B6FEE7CDE90C000CA901
:10160000384605F04DFB08B172B6FEE74B4B4C492E
:101610004C4A1862C3E900124FF48042C3E9020049
:10162000C3E90420C3E90600184604F01FF8054684
:1016300008B172B6FEE70146102213A808F0F8FAC6
:101640004148424B8560C0E90035414B0561057654
:1016500080F82050C5628362C560C66180F8305052
:10166000466103F051FA08B172B6FEE70B23012779
:10167000CDE913373448002313A9159303F0E6FB93
:10168000064608B172B6FEE7CDE90C00102201460D
:1016900013A808F0CDFA2F4D2F4AAE600F23C5E9ED
:1016A000002328464FF6FF73C5E90336AE6104F008
:1016B0002FFF08B172B6FEE7CDE90C000CA9284651
:1016C00005F0EEFA08B172B6FEE7CDE91307CDE9F1
:1016D0001500042213A9284605F064F8064608B14F
:1016E00072B6FEE70146102213A808F0A1FA1B4DBE
:1016F0001B4BAE60C5E900362846154B2E612E7691
:1017000085F82060EE62AB62EE60EF6185F83060D4
:101710006F6103F0F9F908B172B6FEE70E23159078
:1017200013A92846CDE9133703F090FB0546C8B14D
:1017300072B6FEE750050020000400406C04002053
:1017400000540040A0860100DC030020002001407E
:101750000100000F9805002000080040240400202C
:101760000021014007F080FC57480322294607F07A
:101770005FFB564B564A5D8064211970554B1278B9
:101780001D809A702846AA4200F39880524A534915
:1017900053481160002353609060D3601361514A35
:1017A0005148116053609360D36013614F4A536096
:1017B0009360D36013614E4B4FF07F5111601A78E4
:1017C0004C4905F0DCFD0C214B4805F097F9002150
:1017D0004A4805F093F90421484805F08FF93C2167
:1017E000474804F0C2FC3C21464804F0BEFC236894
:1017F0004A221A644FF4967003F072F905F0D8FD8E
:10180000414A4248002105F0FFFD414B414A186022
:101810000021414805F0F8FD404B414A1860002185
:10182000404805F0F1FD404B404A18600021404817
:1018300005F0EAFD3F4B404A186000213F4805F0A3
:10184000E3FD3F4B3F4A186000213F4805F0DCFDB7
:101850003E4B3F4A186000213E4805F0D5FD3E4B07
:101860003E4A186000213E4805F0CEFD3D4B3E4A01
:10187000186000213D4805F0C7FD3D4B3D4A18600A
:1018800000213D4805F0C0FD3C4B3D4A1860002159
:101890003C4805F0B9FD3C4B3C4A186000213C48EF
:1018A00005F0B2FD3B4B3C4A186000213B4805F077
:1018B000ABFD3B4B186005F08DFDFEE71971D8803C
:1018C000013504335FE700BF6C040020C40300202F
:1018D0000000002074030020C0060020000020400B
:1018E000CDCC4C3FAC0600202806002098060020F6
:1018F0000100002051030020C0040020E00500206A
:101900000805002050050020E0CD0008B5100008B3
:10191000940600202CCD00081D2B0008BC030020DD
:1019200030CC00086D29000830030020BCCD000831
:10193000D12200087C06002050CD0008E9400008B4
:10194000D003002008CD0008850F00087003002098
:101950009CCC0008A92D00083C030020C0CC000846
:10196000B13000084003002054CC0008CD330008FB
:101970003403002078CC0008F1360008380300203A
:1019800074CD0008AD3D0008D4030020E4CC00086D
:10199000511000086803002098CD0008B126000807
:1019A00078060020F8B59E4B9E4C93F802E0DD7857
:1019B000DFF8B8C26778AEF130020A21A5F130062F
:1019C00001FB02665A78A2F13001C8B209289CBF17
:1019D000642000FB016618782378002153288CF8D6
:1019E00000105AD1542A2AD18F4A90481268516364
:1019F00091638F4A157805700B2010708D48002276
:101A000002608D4801808D48C26002618C48C260CE
:101A100002618C48C26002618B4ABB4211808B4AD2
:101A20002BD1642351808A488A49137008F047F902
:101A300089498A484FF6FF73062205F087FA6378D2
:101A400022789A420FD004EB8302013351687F4A17
:101A50007F481160A278B3FBF2F102FB1133804999
:101A6000637008F02CF97D486D4903685B687D4B15
:101A70001A78BDE8F84005F082BC04EB870374488F
:101A80005B681360A2787B1CB3FBF2F102FB11339D
:101A90007349637008F013F9D1E7462820D102F0AA
:101AA000FB00532836D1BEF12D0F17D1A5F12D071C
:101AB0007D427D41533A6C498CF8005018BF012299
:101AC0000A7004EB830201211171D6800B44A278C5
:101AD000B3FBF2F102FB11332370B0E70D46E9E7E7
:101AE000422856D102F0FB00532835D1BEF12D0F0C
:101AF00003D1A5F12D0041424141533A8CF8001029
:101B0000594918BF01220A7004EB830202211171A6
:101B1000D6800EE04C2A10D1BEF12D0F0BD12D2D09
:101B200009D101228CF80020032204EB83010A7101
:101B3000CE800133CBE70722F7E7522A7FF47FAF4D
:101B4000BEF12D0F06D12D2D04D101228CF80020DD
:101B50000422EAE70822E8E74C2A0BD1BEF12D0F58
:101B600006D12D2D04D101228CF800200522DCE7BE
:101B70000922DAE7522A7FF462AFBEF12D0F06D1B7
:101B80002D2D04D101228CF800200622CDE70A2257
:101B9000CBE754280CD14C2A03D104EB83020B2150
:101BA000B5E7522A7FF44BAF04EB83020C21AEE77A
:101BB000492806D1522A7FF442AF04EB83020D215B
:101BC000A5E7442806D1542A7FF439AF04EB8302F9
:101BD0000E219CE75A2806D15A2A7FF430AF04EB35
:101BE00083020F2193E757280CD1582A03D104EB25
:101BF000830210218BE74E2A7FF421AF04EB83028E
:101C0000112184E7412803D104EB830258217EE7A8
:101C100043287FF414AF04EB8302592177E700BF18
:101C20005103002074030020E0050020370100204C
:101C3000340100205C030020D8030020C0060020EF
:101C4000AC06002098060020C8030020C403002032
:101C5000D606002070CB000876CB000828060020AE
:101C60007DCB000801000020360100207406002012
:101C700038B51A4B1D687DBBB0F5807F2CD1012291
:101C80001A60174B174C1A78217803EB8200073142
:101C900001719978C5800132B2FBF1F001FB10228D
:101CA0001A705A7803EB8200013245680E480560CD
:101CB000B2FBF1F001FB10220C490D485A7007F0FD
:101CC000FEFF94F9003001335A4202F0030203F0A0
:101CD000030358BF5342237038BD00BFB803002030
:101CE00074030020E6060020C40300207DCB00081A
:101CF000D606002030B585B06A4C009402234FF61A
:101D0000FF72CDE90132D021012337220546664812
:101D100003F0E4FD23886549654C5BBA1AB207EE0F
:101D2000902A644A1380644A12681268043312F0DD
:101D3000100F9BB214BF01224FF0FF320F2B5F4BED
:101D400098BFDFED5F7A93ED007A0A7088BFF8EEF6
:101D5000E77A5C4977EE877AC3ED007A002D38D1B7
:101D6000594B5A4893ED046A93ED017AD3ED006A1A
:101D7000D3ED025A26EE077AA7EEA67AD3ED036AD0
:101D8000C3ED037A76EEE76A77EE867AA5EEA67A59
:101D9000C3ED047AFDEEC77A17EE903A8342B8BFDE
:101DA0000346B3F5167F4A48A8BF4FF41673036085
:101DB00012FB03F39BB203F596622280C3F5966390
:101DC0000B80444B22881B685A630A889A6305B0CB
:101DD00030BD022D31D1404B404893ED046A93ED64
:101DE000017AD3ED006AD3ED025A26EE077AA7EE08
:101DF000A67AD3ED036AC3ED037A76EEE76A77EE4F
:101E0000867AA5EEA67AC3ED047AFDEEC77A17EEC0
:101E1000903A8342B8BF0346B3F52F7F2C48A8BF42
:101E20004FF42F73036012FB03F39BB203F6B83237
:101E3000C3F53B6322800833C2E7012DC1D1284B93
:101E4000264893ED046A93ED017AD3ED006AD3ED51
:101E5000025A26EE077AA7EEA67AD3ED036AC3EDFF
:101E6000037A76EEE76A77EE867AA5EEA67AC3ED78
:101E7000047AFDEEC77A17EE903A8342B8BF034664
:101E8000B3F52F7FA8BF4FF42F7312FB03F2104856
:101E900092B2036002F6FC03C2F50F620C3223809B
:101EA0000A808EE7D40600206C0400203501002053
:101EB00080060020D8030020080500205C030020D5
:101EC0000000000082060020C0060020A8FDFFFFE1
:101ED000C0030020E00500209806002044FDFFFF1D
:101EE000AC0600207FB54FF6FF7C5C4E00960223C7
:101EF000CDE9013C05460123372259480C46D02143
:101F000003F0ECFC3388574957485BBA1AB207EE26
:101F1000102A564A1380564A12681268043312F087
:101F2000100F9BB214BF01224FF0FF320F2B514B09
:101F300098BF9FED517AD3ED007A0A7088BFB8EE52
:101F4000C77A012D37EE277A4C4983ED007A4FD1BD
:101F50004B4B93ED046AD3ED017AD3ED006AD3EDD8
:101F6000025A66EE277A6FF42F76E7EE267A35442A
:101F7000D3ED036A83ED037A76EEC76A37EE067A0D
:101F8000E5EEA67A83ED047AFDEEE77A17EE903A55
:101F9000AB42B8BF2B46B3F52F7F3A4DA8BF4FF4E5
:101FA0002F732B6012FB03F39BB203F6FC02C3F505
:101FB0000F6302800C330B80028894ED007A324B61
:101FC00007EE902AF8EEE77A1B680A8867EE877AB0
:101FD000FCEEE77AC3ED0D7A07EE902AF8EEE77A89
:101FE00067EE877AFCEEE77AC3ED0E7A04B070BD37
:101FF000022DE1D1254B93ED046AD3ED017AD3EDA7
:10200000006AD3ED025A66EE277AA5F2BE25E7EE06
:10201000267AD3ED036A83ED037A76EEC76A37EE4C
:10202000067AE5EEA67A83ED047AFDEEE77A17EEFE
:10203000903AAB42B8BF2B46B3F52F7F114DA8BFE6
:102040004FF42F732B6012FB03F39BB203F6B832ED
:10205000C3F53B6302800833ADE700BFD406002020
:102060006C0400203501002080060020D8030020E9
:10207000080500205C03002000000000820600200C
:10208000AC060020C0030020E005002098060020D8
:102090002DE9F84F1446784A784DDFF82482784FBE
:1020A000DFF820A2DFF820B200230E4675492DED9F
:1020B000028B136000220A8073492A80CB600B6177
:1020C0007249CB600B617249CB600B610068FEF70F
:1020D0003BFA63A3D3E90023FEF78EFA62A3D3E9A8
:1020E0000023FEF7D1F86B4B0022FEF7AFFB6A4BE3
:1020F0000022FEF781FA694B0022FEF7C5F8FEF7D1
:1021000053FDA8F8000002F0E5FCB6FA86F94FEAA4
:1021100059194A4638600421614803F0B9F8003E75
:1021200018BF012632465E48082103F0B1F84A463E
:102130005B48DFF89891202103F0AAF8324658480E
:10214000584E102103F0A4F8DAF80030564A5B6AC2
:102150001370A9F80030554B554A1B685B6A138011
:10216000544A1370DAF80030B9F80020596A1B6835
:10217000DB0620D591428BB288BF02F1FF32D21A22
:1021800093B22A88ABF800301344B8F80020A9F8BD
:1021900000109BB29A422B8059D902F09BFC3B68FD
:1021A000C01A0928DED974B92046FFF7A3FD02F052
:1021B00091FC3860D6E78B1A9BB291423CBF03F189
:1021C000FF339BB2DDE7B8F800202B889B1A002B69
:1021D000B8BF5B4240F2DE32B3FBF2F307EE903A57
:1021E000012CB8EEE78A16D1F7EE007AB4EEE78A52
:1021F000F1EE10FA28DCF6EE087AB4EE678AF1EE1A
:1022000010FA48BFB0EE678A3146204686ED008A54
:10221000FFF768FECBE7022CF6D1F7EE007AB4EEBA
:10222000E78AF1EE10FA0FDC18EE100AFEF78CF9CF
:102230000FA3D3E90023FEF751FCDFED1F7A00283E
:1022400018BFB0EE678ADFE7B0EE678ADCE7BDEC67
:10225000028B1A4B1B6800225A639A63BDE8F88F01
:102260002AB266FCAC66F23FF82625BBD4E3EE3F0B
:102270009A9999999999D93F5C030020C803002045
:1022800070060020D8030020C0060020AC06002005
:10229000980600200000344000A094400000244034
:1022A0000000024038010020CE030020500500202D
:1022B0006E060020CF030020CDCCCC3EE0050020F0
:1022C000F006002008050020CC0300206C0600204A
:1022D00080B55C4C5C4E2278012A04D94FF47A70A8
:1022E00005F0D9F8F7E796F800C0DFF8A491DFF819
:1022F000A481564F564DBCF1000F5CD0554956484D
:1023000000230B6055494FF0000AA1F800A0544982
:10231000CB600B615349CB600B615349CB600B61C0
:10232000042102F0B5FF22784B48B2FA82F252093A
:10233000082102F0ADFF22784748B2EB0A0218BF2D
:102340000122202102F0A4FF22784348B2FA82F24F
:102350005209102102F09CFFD9F800304349C3F81C
:1023600034A0C3F838A0237888F800300B232370FA
:102370003F48A5F802A064232B70C7F800A007F01F
:102380009EFC3C493C483D4D4FF6FF73062204F04D
:10239000DDFD02F09FFB28603378002B9BD002F01C
:1023A00099FB2B68C01A0928F6D90020FFF7A2FC78
:1023B00002F090FBEFE76B88314807EE903AF8EEB9
:1023C000677A0F2BC0ED007A2E4B82F0010124D8E2
:1023D00083F800C02A480122FFF75AFED9F80030DE
:1023E000294A002159639963237888F800300B2328
:1023F0001078237053783960984213D16423698030
:102400001B481A492B7007F05AFC1A491A484FF614
:10241000FF73062204F09AFD5DE71B78002BD9D0EC
:102420000222D9E702EB83010133496829609178E0
:10243000B3FBF1F001FB103314490D48537007F062
:102440003EFC48E73401002074060020B803002059
:10245000C40300205C03002000000240D8030020D9
:10246000C0060020AC0600209806002070CB0008B3
:10247000D606002076CB0008280600207006002033
:10248000EC06002036010020740300207DCB0008FC
:10249000E0050020370100202DE9F84F764A774DFE
:1024A000DFF8049200232DED028B1360744A8846F6
:1024B00000211180734AD3601361734AD3601361A2
:1024C000724A0421D36013610446714B71482B603A
:1024D00067A7D7E9006704F013FB02F0FBFADFF807
:1024E000CCB1DFF8B0A1C9F8000001221021584694
:1024F00002F0CEFEDAF8003000225A625A6A092A47
:10250000FCD900221021584602F0C2FEDAF8002061
:10251000D36843F00403D3600A2004F0BCFFD4ED79
:10252000006A95ED007A76EEC77AFDEEE77A17EE4F
:10253000903A002B00F08D80F4EEC76AF1EE10FAAD
:102540008CBF012200225448042102F0A1FE94ED28
:10255000007AD5ED007A5048B4EEE77AF1EE10FA41
:1025600094BF01220022082102F092FE94ED007A2D
:10257000D5ED007A4848B4EEE77AF1EE10FA8CBF58
:1025800001220022202102F083FE94ED007AD5ED95
:10259000007A4148B4EEE77AF1EE10FA94BF0122D6
:1025A0000022102102F074FE02F094FAD9F80030F3
:1025B000C01A132899D9D5ED007A94ED007ADFF886
:1025C000DCA077EEC77A0F22FDEEE77A17EE903A9D
:1025D000002BB8BF5B42B3FBF2F307EE903AB8EEC4
:1025E000E78AB8F1010FF7EE007AB4EEE78A17D167
:1025F000F1EE10FA11DCF6EE087AB4EE678AF1EE2D
:1026000010FA48BFB0EE678A24498AED008A01209B
:10261000FFF768FC02F05EFA61E7B0EE678AF3E765
:10262000F1EE10FA12DC18EE100AFDF78DFF3246BB
:102630003B46FEF753FADFED1A7A002818BFB0EEDA
:10264000678A16498AED008A0220E1E7B0EE678AC0
:10265000F7E7BDEC028B134A0E481268BDE8F84F4D
:10266000C2ED0D7A0421C2ED0E7A04F0CBBA00BFA0
:102670009A9999999999D93F5C030020880600207E
:10268000D8030020C0060020AC06002098060020D9
:1026900000007A4498050020000002403801002024
:1026A000CDCCCC3EE00500207006002000040240A6
:1026B00008B5234D234E244C2B78072B04D04FF420
:1026C0007A7004F0E8FEF7E763881E4807EE903A58
:1026D000F8EE677A0221C6ED007AFFF7DDFE1B4BAC
:1026E0002A781B68002159639963194B1A700B23D0
:1026F000184A2B70184B10781960537898420ED1F5
:102700006423618015481649237007F0D8FA1549EB
:1027100015484FF6FF73062204F018FCCCE702EBD5
:1027200083010133496821609178B3FBF1F001FB2B
:1027300010330E490948537007F0C1FABCE700BFD7
:1027400034010020EC060020C4030020E005002036
:102750003701002074030020B8030020D6060020B3
:1027600070CB000876CB0008280600207DCB00083F
:102770002DE9F047DFF8EC81714F724D00232DED0C
:10278000028BA8F800303B606F4B2B60044602F0D0
:10279000A1F9DFF8D4A1DFF8C891CAF800004846D3
:1027A00002F058FA1421484602F0F9FA484602F0BD
:1027B00049FB3B681844B8F80030386001336422A4
:1027C000B3FBF2F102FB1133632BA8F8003017D1F1
:1027D000B0FBF3F63046FDF795FE53A3D3E9002393
:1027E000FDF752FD0B46024651A1D1E90001FEF76B
:1027F0002DF8FEF7F9F9554B28601E8000233B6049
:1028000094ED007AD5ED006AB5EEC07AF1EE10FADB
:1028100007DD77EE667AFDEEE77A17EE903A002B49
:1028200073D0B4EEE67AF1EE10FA8CBF01220022EA
:102830004748042102F02CFD94ED007AD5ED007A92
:102840004348B4EEE77AF1EE10FA94BF0122002279
:10285000082102F01DFD94ED007AD5ED007A3C4888
:10286000B4EEE77AF1EE10FA8CBF012200222021AB
:1028700002F00EFD94ED007AD5ED007A3448B4EE06
:10288000E77AF1EE10FA94BF01220022102102F043
:10289000FFFC02F01FF9DAF80030C01A09287FF6B1
:1028A0007EAFD5ED007A94ED007A77EEC77A0F22ED
:1028B000FDEEE77A17EE903A002BB8BF5B42B3FB10
:1028C000F2F307EE903AB8EEE78AF7EE007AB4EE4C
:1028D000E78AF1EE10FA15DC18EE100AFDF734FE67
:1028E00015A3D3E90023FEF7F9F8DFED1A7A0028E3
:1028F00018BFB0EE678A1849022081ED008AFFF701
:10290000F1FA44E7B0EE678AF5E7BDEC028B134AB3
:1029100013481268BDE8F047C2ED0D7AC2ED0E7A99
:1029200002F022BAAFF30080D32357FBC5467040B4
:1029300066834C32340BD940333333333333D33F94
:102940004C0300208406002000007A448C060020FE
:10295000000002409A99993E38010020E0050020CD
:10296000DC030020CA03002070060020F8B51F4DCC
:102970001F4C204E2F78062F04D04FF47A7004F0AD
:102980008AFDF7E763231B4823701B4B3360FFF777
:10299000EFFE1A4B297800221A60194B1970194959
:1029A0000B2308782B704B7898420ED1642316497C
:1029B00016482370628007F082F9154915484FF6D2
:1029C000FF733A4604F0C2FAD4E701EB8302013305
:1029D000526822608A78B3FBF2F002FB10334B702E
:1029E0000A480D4907F06BF9C4E700BF3401002025
:1029F000C4030020EC06002000002042B8030020A1
:102A0000370100207403002070CB0008D606002098
:102A100076CB0008280600207DCB000800000000CF
:102A20002DE9F04F364DDFF8ECA0DFF8ECB00023D5
:102A30002B6085B000230446AAF800300FF2B009DD
:102A4000D9E9008902F046F8CBF8000002F042F81C
:102A5000DBF80030C01A0928F8D92A4E0096022364
:102A60004FF6FF72CDE90132D021012337222648EB
:102A700002F034FF308840BAAAF8000000B2FDF737
:102A800051FD1DA3D3E90023FDF7E0FE42464B466E
:102A9000FDF7B2FD064628680F46FDF755FD0B46CB
:102AA000024639463046FDF7F1FBFEF79DF82860F7
:102AB00007EE900A94ED007A77EEC77AFDEEE77A9A
:102AC00017EE903A13B102F005F8BDE70F4A104B2C
:102AD00012681B68C2ED0D7A4FF49670C2ED0E7A43
:102AE0004A221A6405B0BDE8F04F01F0F9BF00BFFB
:102AF0007B14AE47E17A843F666666666666304060
:102B00005C030020D40600206C040020E0050020B7
:102B1000C0040020D80300207006002008B5934CA4
:102B2000934D2378112B14D8C3B1DA1E0E2A19D86D
:102B3000DFE812F020002000200020009F00A3000A
:102B4000A600A900AC00AC00C600CA00CD00D000B1
:102B5000D300A3F15802012A40F2C280642004F09D
:102B60009AFCDEE7013B834A18BF012313706323FD
:102B70002370F3E7804E9FED817A06EB0313D3EDCC
:102B8000017AF4EEC77AF1EE10FA5EDC9FED7C7A02
:102B9000F4EEC77AF1EE10FA59D4FCEEE77A17EEAC
:102BA000903A2A684FF49670136401F099FF2378E5
:102BB000744A754806EB0313996811601A7BB2FAE0
:102BC00082F25209042102F063FB23786E4806EB7F
:102BD000031308211A7B003A18BF012202F058FBA8
:102BE0002378694806EB031320211A7BB2FA82F29C
:102BF000520902F04DFB2378634806EB03131021C2
:102C00001A7B003A18BF012202F042FB23785F4A88
:102C1000190106EB03131268715A5B8851639363C1
:102C20005B4A53781178994213D164232370594930
:102C300059480023638007F042F8584958484FF636
:102C4000FF73062204F082F991E77323A9E7322388
:102C5000A7E702EB83010133496821609178B3FB58
:102C6000F1F001FB10334F494B48537007F027F840
:102C70007DE7404B02221A7079E73E4B0322FAE7C8
:102C80003C4B0422F7E73B4B0522F4E70B2B2A6869
:102C900014BF7323322313644FF4967001F020FFA6
:102CA000642323703B493C480023638007F007F806
:102CB0003A493B484FF6FF73062204F047F94DE7C7
:102CC0002C4B06221A7049E72A4B0722D3E7294BDF
:102CD0000A22D0E7274B0822CDE7264B0922CAE774
:102CE000582B2A6814BF7323322313644FF4967051
:102CF00001F0F6FE24480022042102F0C9FA22481D
:102D00000122082102F0C4FA1F480022202102F00B
:102D1000BFFA012210211C4802F0BAFA237819499F
:102D20001A4A582B638812D107EE903A1368F8EECE
:102D3000677A4FF448725A63C1ED007A4FF4966295
:102D40009A63104863232370FFF76AFE06E75B422D
:102D500007EE903A1368F8EEE77A4FF496625A63FA
:102D6000C1ED007A4FF44872EAE700BFC4030020C7
:102D7000C004002034010020040000200000E642CE
:102D800000004842E806002000000240E005002064
:102D90007403002070CB0008D606002076CB000814
:102DA000280600207DCB00082DE98848AD4EAE4FA7
:102DB0003B78022B04D04FF47A7004F06CFBF7E7F9
:102DC0007388AA4C9FEDAA8ADFF8DCA2DFF8B092E4
:102DD000DFF8D882A74D142B4FF0814B7CD01E2BEF
:102DE00040F0DA80D4ED3D7AF4EEC87AF1EE10FAD4
:102DF0006EDC9FEDA17AF4EEC77AF1EE10FA69D499
:102E0000FCEEE77A17EE903ADAF800204FF496706D
:102E1000136401F065FE94F8FC20D4F8F83097486C
:102E2000C9F80030B2FA82F25209042102F030FAF5
:102E300094F8FC209148003A18BF0122082102F0C2
:102E400027FA94F8FC208D48B2FA82F25209202128
:102E500002F01EFA94F8FC208848003A18BF0122BC
:102E6000102102F015FAD8F80030B4F8F0205A63B7
:102E7000B4F8F22082489A63FFF7D2FD0A2004F0EA
:102E80000AFBC5F800B0002211467A48FFF700F9A6
:102E90000A2004F000FB7B4B3A78002119607A4B42
:102EA0001A707A4A0B2310783B705378984240F09E
:102EB000C9806423718076487649337006F0FFFE3E
:102EC000754976484FF6FF73062204F03FF86FE726
:102ED000732399E7322397E7002211462846C5F865
:102EE00000B0FFF7D5F80A2004F0D5FAD4ED2D7A1A
:102EF000F4EEC87AF1EE10FA4ADC9FED5F7AF4EE58
:102F0000C77AF1EE10FA45D4FCEEE77A17EE903A64
:102F1000DAF800204FF49670136401F0E1FD94F8A4
:102F2000BC20D4F8B8305548C9F80030B2FA82F263
:102F30005209042102F0ACF994F8BC204F48003A41
:102F400018BF0122082102F0A3F994F8BC204B48D5
:102F5000B2FA82F25209202102F09AF994F8BC20C8
:102F60004648003A18BF0122102102F091F9D8F822
:102F70000030B4F8B0205A63B4F8B2209A634048E5
:102F8000FFF74EFD0A2004F086FA454B2B607AE7E6
:102F90007323BDE73223BBE7002211462846C5F85C
:102FA00000B0FFF775F80A2004F075FAD4ED1D7A29
:102FB000F4EEC87AF1EE10FA40DC9FED2F7AF4EED1
:102FC000C77AF1EE10FA3BD4FCEEE77A17EE903AAE
:102FD000DAF800204FF49670136401F081FD94F844
:102FE0007C20A36F2548C9F80030B2FA82F252095A
:102FF000042102F04DF994F87C202048003A18BFD3
:103000000122082102F044F994F87C201B48B2FA0E
:1030100082F25209202102F03BF994F87C201748F3
:10302000003A18BF0122102102F032F9D8F800301E
:10303000B4F870205A63B4F872209FE77323C7E78F
:103040003223C5E702EB830101334968316091788F
:10305000B3FBF1F001FB103312490D48537006F039
:103060002EFEA5E6C4030020340100200400002049
:103070000000E642EC06002000004842000002404A
:10308000E8060020B8030020370100207403002068
:10309000D606002070CB000876CB0008280600205A
:1030A0000000E0407DCB0008C0040020E0050020C7
:1030B00080B5B24EB24F3B78032B04D04FF47A70F8
:1030C00004F0E9F9F7E77388AE4C9FEDAF8ADFF8BB
:1030D000F4A2DFF8C492DFF8F082AC4D142B7DD05F
:1030E0001E2B40F0DC80D4ED417AF4EEC87AF1EE8C
:1030F00010FA6FDC9FEDA67AF4EEC77AF1EE10FAC3
:103100006AD4FCEEE77A17EE903ADAF800204FF432
:103110009670136401F0E4FC94F80C21D4F80831A3
:103120009C48C9F80030B2FA82F25209042102F038
:10313000AFF894F80C219748003A18BF01220821F3
:1031400002F0A6F894F80C219248B2FA82F25209E1
:10315000202102F09DF894F80C218E48003A18BF07
:103160000122102102F094F8D8F80030B4F80021C0
:103170005A63B4F802219A638748FFF751FC0A208A
:1031800004F089F94FF08143002211467F482B60FB
:10319000FEF77EFF0A2004F07EF9804B3A7800218A
:1031A00019607F4B1A707F4A0B2310783B7053785D
:1031B000984240F0D380642371807B487B49337010
:1031C00006F07DFD7A497B484FF6FF73062203F037
:1031D000BDFE70E7732398E7322396E700224FF095
:1031E0008143114628462B60FEF752FF0A2004F067
:1031F00052F9D4ED317AF4EEC87AF1EE10FA4ADCE5
:103200009FED637AF4EEC77AF1EE10FA45D4FCEE46
:10321000E77A17EE903ADAF800204FF496701364CC
:1032200001F05EFC94F8CC20D4F8C8305948C9F8B5
:103230000030B2FA82F25209042102F029F894F81F
:10324000CC205448003A18BF0122082102F020F88F
:1032500094F8CC204F48B2FA82F25209202102F0B1
:1032600017F894F8CC204B48003A18BF01221021DF
:1032700002F00EF8D8F80030B4F8C0205A63B4F861
:10328000C2209A634448FFF7CBFB0A2004F003F9FD
:103290004FF0824378E77323BDE73223BBE7002278
:1032A000454B2B6011462846FEF7F2FE0A2004F03B
:1032B000F2F8D4ED217AF4EEC87AF1EE10FA49DC96
:1032C0009FED337AF4EEC77AF1EE10FA44D4FCEEB7
:1032D000E77A17EE903ADAF800204FF4967013640C
:1032E00001F0FEFB94F88C20D4F888302948C9F806
:1032F0000030B2FA82F25209042101F0C9FF94F8B9
:103300008C202448003A18BF0122082101F0C0FF98
:1033100094F88C201F48B2FA82F25209202101F061
:10332000B7FF94F88C201B48003A18BF01221021E7
:1033300001F0AEFFD8F80030B4F880205A63B4F83A
:1033400082209A631448FFF76BFB0A2004F0A3F86D
:103350001A4B19E77323BEE73223BCE702EB830164
:103360000133496831609178B3FBF1F001FB103310
:1033700013490D48537006F0A2FC9CE6C4030020DC
:1033800034010020040000200000E642EC0600208A
:103390000000484200000240E8060020B803002078
:1033A0003701002074030020D606002070CB0008EF
:1033B00076CB000828060020000040400000D040E6
:1033C0007DCB0008C0040020E005002080B5B34E8E
:1033D000B34F3B78042B04D04FF47A7004F05BF8C1
:1033E000F7E77388AF4C9FEDB08ADFF8FCA2DFF8F7
:1033F000C892DFF8F882AD4D142B7CD01E2B40F024
:10340000DD80D4ED457AF4EEC87AF1EE10FA6EDC88
:103410009FEDA77AF4EEC77AF1EE10FA69D4FCEECC
:10342000E77A17EE903ADAF800204FF496701364BA
:1034300001F056FB94F81C21D4F818319D48C9F8C6
:103440000030B2FA82F25209042101F021FF94F80F
:103450001C219848003A18BF0122082101F018FFEA
:1034600094F81C219348B2FA82F25209202101F00B
:103470000FFF94F81C218F48003A18BF0122102139
:1034800001F006FFD8F80030B4F810215A63B4F800
:1034900012219A638848FFF7C3FA0A2003F0FBFF62
:1034A000864B2B60002211468048FEF7F1FD0A2072
:1034B00003F0F1FF824B3A7800211960814B1A70BA
:1034C000814A0B2310783B705378984240F0D580A6
:1034D000642371807D487E49337006F0F0FB7D499E
:1034E0007D484FF6FF73062203F030FD71E773232A
:1034F00099E7322397E7794B2B6000220121284678
:10350000FEF7C6FD0A2003F0C6FFD4ED357AF4EECF
:10351000C87AF1EE10FA4DDC9FED657AF4EEC77AC9
:10352000F1EE10FA48D4FCEEE77A17EE903ADAF8AA
:1035300000204FF49670136401F0D2FA94F8DC2066
:10354000D4F8D8305B48C9F80030B2FA82F2520998
:10355000042101F09DFE94F8DC205648003A18BF83
:103560000122082101F094FE94F8DC205148B2FABF
:1035700082F25209202101F08BFE94F8DC204D48A4
:10358000003A18BF0122102101F082FED8F8003065
:10359000B4F8D0205A63B4F8D2209A634648FFF7B3
:1035A0003FFA0A2003F077FF4FF080432B600022A0
:1035B000012179E77323BAE73223B8E7474B2B6041
:1035C000002201212846FEF763FD0A2003F063FF75
:1035D000D4ED257AF4EEC87AF1EE10FA49DC9FEDCD
:1035E000347AF4EEC77AF1EE10FA44D4FCEEE77ABE
:1035F00017EE903ADAF800204FF49670136401F059
:103600006FFA94F89C20D4F898302A48C9F8003012
:10361000B2FA82F25209042101F03AFE94F89C2099
:103620002448003A18BF0122082101F031FE94F825
:103630009C202048B2FA82F25209202101F028FE93
:1036400094F89C201B48003A18BF0122102101F079
:103650001FFED8F80030B4F890205A63B4F89220D6
:103660009A631548FFF7DCF90A2003F014FF1C4B9E
:103670009CE77323BEE73223BCE702EB83010133EF
:10368000496831609178B3FBF1F001FB10331549C3
:103690000E48537006F013FB9BE600BFC4030020E6
:1036A00034010020040000200000E642EC06002067
:1036B0000000484200000240E80600200000904060
:1036C000B80300203701002074030020D606002034
:1036D00070CB000876CB0008280600200000C04010
:1036E000000020407DCB0008C0040020E005002041
:1036F00080B5AE4EAE4F3B78052B04D04FF47A70B8
:1037000003F0C9FEF7E77388AA4C9FEDAB8ADFF898
:10371000E8A2DFF8B492DFF8E482A84D142B7CD045
:103720001E2B40F0DC80D4ED497AF4EEC87AF1EE3D
:1037300010FA6EDC9FEDA27AF4EEC77AF1EE10FA81
:1037400069D4FCEEE77A17EE903ADAF800204FF4ED
:103750009670136401F0C4F994F82C21D4F8283140
:103760009848C9F80030B2FA82F25209042101F0F7
:103770008FFD94F82C219348003A18BF01220821AC
:1037800001F086FD94F82C218E48B2FA82F252099B
:10379000202101F07DFD94F82C218A48003A18BFC1
:1037A0000122102101F074FDD8F80030B4F8202176
:1037B0005A63B4F822219A638348FFF731F90A204B
:1037C00003F069FE814B2B60002211467B48FEF717
:1037D0005FFC0A2003F05FFE7D4B3A780021196000
:1037E0007C4B1A707C4A0B2310783B7053789842BC
:1037F00040F0CC806423718078487949337006F0BA
:103800005EFA784978484FF6FF73062203F09EFB74
:1038100071E7732399E7322397E7744B2B600022FB
:1038200001212846FEF734FC0A2003F034FED4EDD3
:10383000397AF4EEC87AF1EE10FA4CDC9FED607A3A
:10384000F4EEC77AF1EE10FA47D4FCEEE77A17EE01
:10385000903ADAF800204FF49670136401F040F9C2
:1038600094F8EC20D4F8E8305648C9F80030B2FAA1
:1038700082F25209042101F00BFD94F8EC2051482A
:10388000003A18BF0122082101F002FD94F8EC2053
:103890004C48B2FA82F25209202101F0F9FC94F866
:1038A000EC204848003A18BF0122102101F0F0FC3A
:1038B000D8F80030B4F8E0205A63B4F8E2209A63F4
:1038C0004148FFF7ADF80A2003F0E5FD484B2B60B7
:1038D000002201217AE77323BBE73223B9E7434B88
:1038E0002B60002201212846FEF7D2FB0A2003F0BC
:1038F000D2FDD4ED297AF4EEC87AF1EE10FA41DC6B
:103900009FED2F7AF4EEC77AF1EE10FA3CD4FCEE7C
:10391000E77A17EE903ADAF800204FF496701364C5
:1039200001F0DEF894F8AC20D4F8A8302548C9F8A6
:103930000030B2FA82F25209042101F0A9FC94F895
:10394000AC202048003A18BF0122082101F0A0FC59
:1039500094F8AC201B48B2FA82F25209202101F0FF
:1039600097FC94F8AC201748003A18BF01221021A8
:1039700001F08EFCD8F80030B4F8A0205A63B4F8F7
:10398000A2209CE77323C6E73223C4E702EB83013E
:103990000133496831609178B3FBF1F001FB1033DA
:1039A00014490E48537006F08AF9A4E6C4030020B7
:1039B00034010020040000200000E642EC06002054
:1039C0000000484200000240E80600200000A0403D
:1039D000B80300203701002074030020D606002021
:1039E00070CB000876CB0008280600200000E040DD
:1039F000000040407DCB0008C0040020E00500200E
:103A00002DE9F04F364DDFF8ECA0DFF8ECB00023E5
:103A10002B6085B000230446AAF800300FF2B009ED
:103A2000D9E9008901F056F8CBF8000001F052F80E
:103A3000DBF80030C01A0928F8D92A4E0096022374
:103A40004FF6FF72CDE90132D021012337222648FB
:103A500001F044FF308840BAAAF8000000B2FCF739
:103A600061FD1DA3D3E90023FCF7F0FE42464B465F
:103A7000FCF7C2FD064628680F46FCF765FD0B46BD
:103A8000024639463046FCF701FCFDF7ADF82860E8
:103A900007EE900A94ED007A77EEC77AFDEEE77AAA
:103AA00017EE903A13B101F015F8BDE70F4A104B2D
:103AB00012681B68C2ED0D7AC820C2ED0E7A4A2248
:103AC0001A6405B0BDE8F04F01F00AB8AFF300800A
:103AD0007B14AE47E17A843F666666666666304070
:103AE0005C030020D40600206C040020E0050020C8
:103AF000C0040020D80300207006002010B5164C2A
:103B0000164B2360164B1B6873221A644FF4967091
:103B100000F0E6FF13480022042101F0B9FB114830
:103B20000122082101F0B4FB0E480022202101F0FF
:103B3000AFFB0C480122102101F0AAFB0A4B1B68C5
:103B400040F6B8325A634FF4487220469A63BDE893
:103B50001040FEF765BF00BFE80600200000ACC2C1
:103B6000C004002000000240E005002010B5164C03
:103B7000164B2360164B1B6873221A644FF4967021
:103B800000F0AEFF13480022042101F081FB114830
:103B90000122082101F07CFB0E480022202101F0C7
:103BA00077FB0C480122102101F072FB0A4B1B68C5
:103BB00040F6B8325A634FF4487220469A63BDE823
:103BC0001040FEF72DBF00BFE8060020000030C304
:103BD000C004002000000240E005002010B50022D3
:103BE000044604211C4801F053FB1B480122082114
:103BF00001F04EFB18480022202101F049FB012270
:103C00001021154801F044FB2378144A1449154C3F
:103C1000116003F0FD03012B134B1B6811D13222FD
:103C20001A644FF4967000F05BFF23684FF4FA6259
:103C30005A6340F6AC52BDE8104008489A63FFF75B
:103C4000DFBE34221A644FF4967000F049FF2368F7
:103C500040F6B832ECE700BF00000240E806002062
:103C60000000A642E0050020C004002010B500229C
:103C7000044604211E4801F00BFB1D4801220821C7
:103C800001F006FB1A480022202101F001FB01226D
:103C90001021174801F0FCFA2178164A164B174CF0
:103CA00001290ED0032921D01B6815491160342247
:103CB0001A644FF4967000F013FF236840F6B83290
:103CC0000BE010491B68116032221A644FF49670A1
:103CD00000F006FF23684FF4FA625A6340F6AC52D4
:103CE000BDE8104003489A63FFF78ABE0649E9E73A
:103CF00000000240E8060020C0040020E00500208B
:103D000000009E420000A6420000AA4210B5002218
:103D1000044604211F4801F0BBFA1E480122082175
:103D200001F0B6FA1B480022202101F0B1FA01226D
:103D30001848102101F0ACFA2378174A174C03F009
:103D4000FD03012B164B14D11B6816491160732219
:103D50001A644FF4967000F0C3FE236840F6AC522C
:103D60005A634FF4FA62BDE810400B489A63FFF7BC
:103D700047BE1B680C49116062221A644FF49670AA
:103D800000F0AEFE236840F6AC525A6340F6A842FB
:103D9000E9E700BF00000240E8060020E00500203F
:103DA000C004002000002CC300002AC32DE9F74303
:103DB000DFF82081DFF8209198F80030092B07D038
:103DC0004FF47A7003F067FB012003F064FBF3E724
:103DD00099F802508DF80750013DEBB2304C314E4E
:103DE0002660022B34BF022701273A4601212046D4
:103DF000FEF74EF9032D05D8DFE805F0021602168E
:103E0000294B236039462648FEF746FB0DF1070093
:103E1000FFF7E4FE0DF10700FFF778FF032D07D849
:103E2000DFE805F0043B043B204BEAE7204B23602E
:103E30003A4601211A48FEF72BF90DF10700FFF76A
:103E400065FF0DF10700FFF711FF1A4B14482360BF
:103E50003A460121FEF71CF9174B114823603946F9
:103E6000FEF71AFB154B98F800201A7014491548F4
:103E70000B2388F8003005F022FF4FF6FF7307226E
:103E80001149124803F062F86423114A89F800309E
:103E90000023A9F80230136096E72660C8E700BF48
:103EA000EC06002000008C420000E4410000424289
:103EB00000005042000070420000704137010020B5
:103EC00070CB0008D60600209DCB000828060020F5
:103ED000B803002034010020C403002000000000CB
:103EE0002DE9F047344A354DDFF8F0A00023136088
:103EF0002B60334B00221A800FF2AC09D9E90089FC
:103F000000F0E8FD2F4ECAF80000304600F0A2FE97
:103F10001421304600F043FF2B4F304600F092FF53
:103F20003B682A4A18441388386001336421B3FB84
:103F3000F1F401FB1433632B138016D1B0FBF3F4BF
:103F40002046FCF7DFFA1AA3D3E90023FCF79CF91B
:103F50000B46024649464046FCF778FCFCF744FE17
:103F60001B4B28601C8000233B6095ED007ADFED41
:103F7000197AB4EEE77AF1EE10FA0CDC00F0AAFD43
:103F8000DAF80030C01A0928BFD90220FDF7B2FEC6
:103F900000F0A0FDB6E7104B1B6800225A639A633D
:103FA000BDE8F087AFF3008066834C32340BD94014
:103FB000D32357FBC54670405C03002084060020D5
:103FC000D8030020DC0300204C030020CA0300209B
:103FD0008C06002000002042E00500207006002032
:103FE0002DE9F047344D354B2B60354BDFF8F0A011
:103FF00000221A60334B00221A800FF2AC09D9E973
:10400000008900F067FD304ECAF80000304600F02D
:1040100021FE1421304600F0C2FE2C4F304600F045
:1040200011FF3B682A4A1844138838600133642121
:10403000B3FBF1F401FB1433632B138016D1B0FBF7
:10404000F3F42046FCF75EFA19A3D3E90023FCF74A
:104050001BF90B46024649464046FCF7F7FBFCF7C6
:10406000C3FD1C4B28601C8000233B6095ED007A4B
:10407000DFED197AB4EEE77AF1EE10FA0CD400F025
:1040800029FDDAF80030C01A0928BFD90220FDF74F
:1040900031FE00F01FFDB6E7104B1B6800225A638B
:1040A0009A63BDE8F08700BF66834C32340BD94079
:1040B000D32357FBC54670408406002000007A4495
:1040C0005C030020D8030020DC0300204C03002008
:1040D000CA0300208C06002000002042E0050020DA
:1040E00070060020000000002DE9F04F2DED028B3E
:1040F000BB4D85B0BB4B1B78082B04D04FF47A70B6
:1041000003F0C9F9F6E7B84B93F9003033B9B74873
:10411000B74B03600221FEF7BFF907E1013B0A2B11
:1041200000F20481DFE813F00B001B0121012401E0
:104130001B0127011B012A0145019E01B301AD4A64
:10414000AD4EDFF814B3DFF80CA3AC4F00231360BF
:104150003360CBF80030AA4BAA4A1B68CAF800208B
:10416000322200241A644FF496703C8000F0B8FCB0
:10417000A54BA6481B684FF416725A634FF47A7227
:104180009A630421224601F083F8A0480122082105
:1041900001F07EF89D482246202101F079F89B48E5
:1041A0001021012201F074F80421284602F0A8FC35
:1041B00000F090FC964BDFF8A4821860DFF8A09224
:1041C0009448CDF8009002234FF6FF72CDE90132FA
:1041D000D0210123372201F081FBB9F800305BBA0E
:1041E0003B80B4B901221021404601F051F82B6800
:1041F0005C625A6A092AFCD900224046102101F06B
:1042000047F82A68D36843F00403D360052003F01D
:1042100042F900F05FFC7E4B1B68C01A0928CDD91B
:10422000B7F90000FCF77EF967A3D3E90023FCF798
:104230000DFB67A3D3E90023FCF7DEF98046306865
:104240008946FCF781F902460B4640464946FCF791
:104250001DF8FCF7C9FCDBED006ADFED6F7A30601A
:10426000F4EEE76AF1EE10FA07EE100A03DD14B976
:10427000604B01241860DAED007A77EEC77AFDEE24
:10428000E77A17EE903A002B92D15F4A5C4B1268A6
:104290001B68C2ED0D7AC2ED0E7A4A221A644FF401
:1042A000967000F01DFC0A2003F0F5F8514B9FEDCD
:1042B0005B8A1868FCF748F947A3D3E90023FCF7A9
:1042C0009BF90022564BFCF7C1FAFCF78DFC00EE7F
:1042D000100A07F0EBFEF3EE0E7A20EE270A514BA0
:1042E00038EE408A83ED000A88EE270A07F002FEC6
:1042F000DFED4D7A60EE277A17EE900AFCF724F98D
:1043000035A3D3E90023FCF7A1FAFCF76DFC9FED80
:10431000470A474BA8EE080A186007F0CDFDF3EEF8
:10432000077A30EE670A434B83ED000A424B2D4873
:1043300000221A60414B017819700B230370404B27
:1043400040485A80642119703F4905F0B8FC3F4944
:104350003F484FF6FF73062202F0F8FDCAE6FFF76A
:10436000BFFD0A2003F097F8E0E7FFF7FFFBF8E74F
:10437000FFF736FEF5E7FFF7C1FBF2E7204B1B68BE
:1043800073221A644FF4967000F0AAFB1E4B31485A
:104390001B684FF4FA625A634FF47A729A63244BA3
:1043A000D3ED007AF1EE677AC0ED007AFEF738FBC4
:1043B000BCE7204B0D481B68036000220121FDF77C
:1043C00067FEB3E7AFF300806666666666663040F8
:1043D0007B14AE47E17A843F50455254FB2109409B
:1043E0009805002034010020E6060020EC0600209D
:1043F0000000F041600300205C030020D80300208F
:10440000C00400200000B442E0050020000002408B
:10441000700600206C04002000005C420000704226
:104420000080664090060020000034430000614494
:1044300064030020F4060020B803002037010020A8
:10444000C4030020D606002070CB000876CB0008FD
:1044500028060020E806002088060020000402400C
:10446000D40600200B4B1B6832221A644FF496705E
:1044700000F036FB084B09481B684FF47A725A6308
:104480004FF4FA629A63064B1B6803608EE7054897
:10449000054B3EE6C0040020E0050020E8060020B1
:1044A00064030020EC0600200000704182B00E4B37
:1044B00000220092596C41F480415964596C01F416
:1044C0008041009100990192196C41F0805119646A
:1044D0001B6C03F080530193019B0F216FF00100CF
:1044E00002B000F055BD00BF0038024010B51422E4
:1044F0008AB0044600210DEB020005F099FB236809
:104500001E4A93421FD11E4B002101915A6C42F466
:1045100080725A645A6C02F480720192019A02917C
:104520001A6B42F004021A631B6B03F0040302933C
:10453000029B022305931348032305A9069300F069
:10454000CDFD0AB010BD104A9342FAD10C4B0021A8
:1045500003915A6C42F400725A645A6C02F400726D
:104560000392039A04911A6B42F004021A631B6BC4
:1045700003F004030493049B1023DBE700200140B5
:1045800000380240000802400021014030B50446D6
:1045900089B01422002103A805F04AFB2268154BBC
:1045A0009A4224D1144C154800250195236B43F001
:1045B00002032363236B03F002030193019B4FF477
:1045C00040721223CDE9032301210223CDE9051313
:1045D000042303A9079300F081FD0295236C43F4A3
:1045E00000132364236C03F400130293029B09B0AD
:1045F00030BD00BF005400400038024000040240BB
:1046000010B5044688B01422002103A805F010FB61
:1046100023681E4A934214D11D4B00220092596C0C
:1046200041F0010159645B6C03F001030093192010
:104630000521009B00F0ACFC192000F0DBFC08B069
:1046400010BD144A9342FAD1114B13480021019135
:104650005A6C42F002025A645A6C02F00202019251
:10466000019A02911A6B42F004021A631B6B03F069
:1046700004030293029BC0220223CDE9032303A972
:104680000323079300F02AFDD9E700BF0000014093
:1046900000380240000401400008024070B51422B6
:1046A0008AB0044600210DEB020005F0C1FA236830
:1046B000B3F1804F37D103F50E33002400941A6C08
:1046C000294842F001021A641A6C02F001020092B9
:1046D000009A01941A6B42F001021A631A6B02F0FD
:1046E00001020192019A02941A6B42F002021A63CB
:1046F0001B6B03F002030293029B02264FF400435C
:10470000012505A9CDE90536099500F0E7FC082348
:10471000CDE90536CDE907441448099505A900F00F
:10472000DDFC0AB070BD124A9342FAD1114B0E481B
:10473000002103911A6C42F002021A641A6C02F012
:1047400002020392039A04911A6B42F001021A6367
:104750001B6B03F001030493049BC0220223CDE9E9
:104760000523099305A9DAE700000240000402408E
:10477000000400400038024010B5044688B01422FE
:10478000002103A805F054FA2268174B9A4228D159
:1047900003F50C33002401941A6C144842F004020F
:1047A0001A641A6C02F004020192019A02941A6BC4
:1047B00042F008021A631B6B03F0080302934FF4E4
:1047C0000052029B03A90223CDE90323079300F0C3
:1047D00085FC1E202246052100F0DAFB1E2000F099
:1047E00009FC08B010BD00BF00080040000C0240EA
:1047F00010B5044686B01422002101A805F018FA6D
:1048000022680E4B9A4216D1002300930C4B0D48A0
:104810001A6B42F010021A631B6B03F01003009333
:10482000009B4FF480420223CDE9012301A901231B
:10483000059300F053FC06B010BD00BF000001401E
:10484000003802400010024070B5044688B01422BF
:10485000002103A805F0ECF922681D4B9A4235D1DE
:1048600003F5F833002501951A6C1A4842F48022AA
:104870001A641A6C02F480220192019A02951A6B52
:1048800042F004021A631B6B03F004030293022438
:10489000029B06944FF48063072603A9CDE90334F5
:1048A000079600F01BFC4FF400630A48079603A923
:1048B000CDE90334CDE9054400F010FC27202A4659
:1048C000052100F065FB272000F094FB08B070BDC7
:1048D0000048004000080240FEE7FEE7FEE7FEE772
:1048E000FEE7704708B500F0E9F803F08DFD0128F8
:1048F00003D0BDE8084004F095B808BD4FF48070BF
:1049000000F0CCBC014801F0A3BC00BFC0040020F3
:10491000014801F09DBC00BF98050020014802F04D
:10492000CFBB00BF280600200120704708B505F066
:104930008BF9162303604FF0FF3008BD08B505F072
:1049400083F916230360FEE770B50D4614460E4644
:10495000731B9C4201DC204670BDAFF3008006F85B
:10496000010BF5E770B50D4614460E46731B9C42CD
:1049700001DC204670BD16F8010BAFF30080F5E7AF
:104980004FF0FF3070474FF400534B6000207047EA
:1049900001207047002070470B4A116810B503468C
:1049A00009B90A491160106809490A4C0344091BF6
:1049B0008B4206D905F048F90C2303604FF0FF3015
:1049C00010BD1360FCE700BFF806002098550020DA
:1049D0000000022000040000034AD2F8883043F4AB
:1049E0007003C2F88830704700ED00E0DFF834D083
:1049F0000D480E490E4A002302E0D458C450043337
:104A0000C4188C42F9D30B4A0B4C002301E013600D
:104A10000432A242FBD3FFF7DFFF05F01BF9FCF7DE
:104A20002FFC70470000022000000020140300202B
:104A300014DA00081403002098550020FEE7000057
:104A400038B50E4B1A784FF47A73B3FBF2F30C4A75
:104A500005461068B0FBF3F000F0DAFA044658B9E6
:104A60000F2D09D8024629464FF0FF3000F090FA8A
:104A7000044B20461D6038BD0120FCE740010020AA
:104A80003C0100204401002008B50B4B1A6842F499
:104A900000721A601A6842F480621A601A6842F45E
:104AA00080721A60032000F061FA0F20FFF7C8FF40
:104AB000FFF7FCFC002008BD003C0240034A044B09
:104AC00011681B780B441360704700BFFC06002080
:104AD00040010020014B1868704700BFFC06002011
:104AE00038B50446FFF7F6FF631C1CBF054B1B7867
:104AF000054618BFE418FFF7EDFF431BA342FAD3A6
:104B000038BD00BF4001002038B50446002800F041
:104B10009B80056C25B9FFF7E9FC656484F83C507F
:104B2000236CDB0600F18E80236C23F4885323F082
:104B3000020343F002032364444B5A6822F44032D8
:104B40005A605A6861680A435A60236821695A6842
:104B500022F480725A605A6842EA01225A605A6806
:104B6000A16822F040725A605A680A435A609A68F3
:104B7000E16822F400629A609A680A439A603449B4
:104B8000A26A8A4252D0996821F07061996099684E
:104B90000A439A609A68E16A22F040529A609A68E1
:104BA0000A439A609A6822F002029A609A68217E0B
:104BB00042EA41029A6094F82020002A3ED05A68C6
:104BC000616A42F400625A605A6822F460425A6094
:104BD0005A68013942EA41325A60DA6AE16922F4DC
:104BE0007002DA62DA6A013942EA0152DA629A68DC
:104BF00022F400729A609A6894F8301042EA4122D6
:104C00009A609A68616922F480629A609A680020CA
:104C100042EA81229A606064236C23F0030343F02C
:104C200001032364002384F83C3038BD9A6822F0E5
:104C300070629A609A6822F04052B2E75A6822F491
:104C40000062C9E70120EDE70120EEE70023014003
:104C50000100000F13B50023019390F83C30012BA5
:104C6000024672D00168012380F83C308B68D80777
:104C70000CD58B6813F001031AD1116C41F01001AF
:104C80001164516C41F0010151645CE08B68304863
:104C900043F001038B602F4B1B68B3FBF0F303EB76
:104CA00043030193019B002BE3D0019B013BF8E7F9
:104CB000136C294C23F4E06323F0010343F4807365
:104CC00013644B685B0541BF136C23F4405343F4FA
:104CD00080531364136C13F4805318BF536C4FF05C
:104CE000000018BF23F00603536482F83C006FF005
:104CF00022031A4A0B60536813F01F0319D1A14213
:104D000006D0174881420DD1526812F01F0F1AD1F8
:104D1000886810F0405016D18B6843F080438B6058
:104D200002B010BD0F4881420DD1526812F0100F31
:104D3000EDE7A142F4D18B6813F04053F0D18A68BB
:104D400042F080428A600020EAE70220E8E700BFE4
:104D500040420F003C0100200020014000230140A0
:104D6000002101400022014090F83C30012B14D07A
:104D700003689A6822F001029A609B68DB0707D4F7
:104D8000036C23F4885323F0010343F0010303640D
:104D9000002380F83C3018467047022070470368B3
:104DA0009A68520570B504460D460BD59B68DE0522
:104DB00008D5036C43F020030364002380F83C30E3
:104DC000012070BDFFF786FE064623681A6891072A
:104DD0000CD56FF012021A60226C42F40072226449
:104DE0009A6812F0405F17D00020EAE7681CEDD007
:104DF00065B923681B6813F00203E6D1226C84F8BE
:104E00003C3042F0040222640320DAE7FFF762FE3E
:104E1000801BA842EDD8D8E7207E0028E4D1DA6ACA
:104E200012F4700F02D09B685A05DDD4236C23F472
:104E300080732364236CDB04D6D4236C43F001031A
:104E40002364BEE70368D86C70470000F7B5002301
:104E5000019390F83C30012B64D0012380F83C3062
:104E60000D6803688E68092DACB231D904EB440299
:104E7000DF681E3A4FF0070C0CFA02FC27EA0C0719
:104E8000DF60DF6806FA02F23A43DA604968062911
:104E900001EB81022BD8596B053A1F26964021EA77
:104EA00006015963596B04FA02F20A435A632B4A0A
:104EB000934207D1122D37D1D2F8043343F4800343
:104EC000C2F80433002380F83C30184603B0F0BD2C
:104ED0001A6905EB450C072707FA0CF722EA0702C7
:104EE0001A611A6906FA0CF616431E61CEE70C2900
:104EF0004FF01F010BD81E6B233A914026EA0101A7
:104F00001963196B04FA02F20A431A63CFE7DE6AE7
:104F1000413A914026EA0101D962D96A94400C4392
:104F2000DC62C4E70220D1E7A5F11003012BC9D848
:104F30000B4A5368102D43F400035360C2D1094B50
:104F4000094A1B68B3FBF2F30A2253430193019B06
:104F5000002BB7D0019B013BF8E700BF00200140C8
:104F6000002301403C01002040420F000749CA686D
:104F700022F4E0620302120403F4E063120C134310
:104F800043F0BF6343F40033CB60704700ED00E0B3
:104F9000164B30B5DC68C4F30224C4F10703251DA9
:104FA000042B28BF0423062D4FF0FF358CBF033C94
:104FB000002405FA03F321EA0303A54022EA0502CF
:104FC000A340002843EA0203ACBF00F16040084A56
:104FD0004FEA0313B8BF00F00F00DBB2AABF00F521
:104FE0006140135480F8003330BD00BF00ED00E095
:104FF00014ED00E0002807DB4109044A00F01F001F
:105000000123834042F82130704700BF00E100E0F7
:105010000138B0F1807F0BD24FF0E023054A586190
:10502000F02182F823100020072298611A6170474E
:105030000120704700ED00E070B50446866DFFF773
:1050400049FD94F83530022B054606D08023636570
:105050000120002384F8343070BD23681A6822F0E0
:1050600016021A605A6922F080025A61226C0AB94B
:10507000A26C1AB11A6822F008021A601A6822F0AB
:1050800001021A6023681B6813F0010308D1E16D67
:105090003F228A40B260012284F835201846D8E7C2
:1050A000FFF718FD401B0528ECD92023032063657A
:1050B00084F83500CDE790F83530022B03D08023FB
:1050C0004365012070470268052380F83530136876
:1050D00023F0010313600020704700002DE9F74F13
:1050E000DFF8A891674A00230D6801249C4004EA78
:1050F000050CAC4340F0B1804D6805F003044FEA65
:1051000043080326671E06FA08F6012F6FEA060613
:1051100034D8876807EA060ECF6807FA08F747EA27
:105120000E078760476827EA0C0EC5F300179F40FB
:1051300047EA0E074760C76807EA060E8F6807FA56
:1051400008F747EA0E07022CC76019D14FEAD30AC5
:1051500000EB8A0A03F0070BDAF820704FEA8B0B9A
:105160004FF00F0E0EFA0BFE27EA0E0E0F6907FA2C
:105170000BF747EA0E07CAF8207001E0032CDAD1DA
:10518000076804FA08F437403C4315F4403F0460D4
:1051900063D04FF0000ACDF804A0D9F844603A4C2F
:1051A00046F48046C9F84460D9F8446006F4804665
:1051B0000196019E23F0030606F1804606F59C3613
:1051C00003F0030ED6F808804FEA8E0E0F2707FA79
:1051D0000EF7A04228EA070746D004F58064A042F3
:1051E00044D004F58064A04242D004F58064A0421B
:1051F00040D004F58064A0423ED004F58064A04213
:105200003CD004F58064A0423AD004F58064A0420A
:105210000CBF0724082404FA0EF43C43B46014685D
:105220006FEA0C06EF0354BF34404CEA04041460E8
:105230005468AF0354BF34404CEA0404546094688B
:10524000EF0254BF34404CEA04049460D468AD02C9
:1052500054BF34404CEA0404D4600133102B7FF473
:1052600043AF03B0BDE8F08F5446D4E70124D2E742
:105270000224D0E70324CEE70424CCE70524CAE7C0
:105280000624C8E7003C014000000240003802400C
:105290000AB1816170470904FBE70000044A5169C3
:1052A000014208B502D05061FCF7E2FC08BD00BF26
:1052B000003C014001684B6913F480634FF0000229
:1052C00010D06FF480634B612023026380F83D307F
:1052D00080F83E20036C80F83C2043F00403036414
:1052E00001207047184670472DE9F84606460F46DC
:1052F00091461D464FEA114A3368BAF1010F0CBFBF
:105300005C699C6927EA0404A4B2B4FA84F46409D1
:10531000A14501D0002017E06A1CEED0FFF7DAFBB0
:10532000089BC01AA84201D8002DE5D100232022F5
:10533000336386F83D2086F83E30326C86F83C3088
:1053400042F0200232640120BDE8F8862DE9F041E8
:1053500004460F46164698462568686927EA000005
:1053600080B2B8B16B695A0516D52B6843F4007347
:105370002B606FF480636B6120220023236384F829
:105380003D2084F83E30226C42F00402226484F80E
:105390003C300120BDE8F081731CDED0FFF79AFBA2
:1053A000A0EB0800B04201D8002ED5D10023202266
:1053B000236384F83D2084F83E30226C42F02002C2
:1053C000E4E770B504460D46164621684B6913F0B4
:1053D000400301D0002010E04A69D2060ED56FF0DC
:1053E00010024A612022236384F83D2084F83E3075
:1053F000226C226484F83C30012070BDFFF76AFB08
:10540000801BA84201D8002DDFD100232022236376
:1054100084F83D2084F83E30226C42F02002E8E718
:1054200070B504460D46164623685B691B0601D518
:10543000002070BD2046FFF73DFFA8B96A1CF3D0DD
:10544000FFF748FB801BA84201D8002DECD10023B8
:105450002022236384F83D2084F83E30226C84F8B7
:105460003C3042F0200222640120E2E72DE9F043C3
:105470001546026885B0DDE90C789946136843F457
:10548000807313600E463B46CDF8008000224FF03B
:1054900001110446FFF728FF236838B11B68DB05BC
:1054A00002D54FF40073236403200AE006F0FE06E1
:1054B0001E61194943463A462046FFF747FF18B197
:1054C000012005B0BDE8F083236803905A69039278
:1054D0009B690393424639462046039BFFF7A0FF92
:1054E00040B1236C042B01BF2268136843F400739E
:1054F0001360E5E7B9F1010F236802D1EDB21D6138
:10550000DFE72A0A1A61394642462046FFF788FF3C
:105510000028E6D12368F1E7020001002DE9FF47EA
:105520009A46036815461A6842F480621A601A683F
:10553000DDE90C7842F480721A600E463B46CDF8E5
:10554000008000224FF001110446FFF7CDFE2368D2
:1055500048B11B68DB0502D54FF4007323640320B8
:1055600004B0BDE8F0875FFA86F906F0FE061E611A
:105570002A4943463A462046FFF7E8FE08B1012093
:10558000EEE7236803905A6903929B6903934246AE
:1055900039462046039BFFF743FF40B1236C042BA1
:1055A00001BF2268136843F400731360E7E7BAF1A0
:1055B000010F23681AD1EDB242461D6139462046DB
:1055C000FFF72EFF02460028E8D121680B6843F45C
:1055D00080730B602046CDF800803B464FF00111F0
:1055E000FFF782FE226860B11368B3E72A0A1A61E6
:1055F000394642462046FFF713FF0028CED12368E4
:10560000D9E749F001031361044943463A4620466D
:10561000FFF79CFE003818BF0120A1E7020001003F
:1056200070B504460D46164623685B695B0701D5D5
:10563000002070BD2046FFF73DFEA8B96A1CF3D0DC
:10564000FFF748FA801BA84201D8002DECD10023B7
:105650002022236384F83D2084F83E30226C84F8B5
:105660003C3042F0200222640120E2E770B504469B
:1056700008B9012070BD90F83D3003F0FF021BB95E
:1056800080F83C20FEF782FF242384F83D30236815
:105690001A6822F001021A601A6842F400421A6085
:1056A0001A6822F400421A6000F0B0FC3F4B6568B3
:1056B0009D4294BF3E4B3F4B98428CBF0023012339
:1056C000002BD6D12268394E51683B4BB0FBF3F327
:1056D00021F03F011943B542516088BF4FF49676DF
:1056E000116A88BF734321F03F0184BF4FF47A767B
:1056F000B3FBF6F301330B431362D169431E2B480E
:1057000021F44F41854221F0FF0132D86D0040F66F
:10571000FC70B3FBF5F30133034242D0C3F30B0338
:105720001943D161D4E907301168034321F0C00166
:105730000B4313609168D4E9030321F4034103434D
:1057400021F0FF010B439360D4E90530D168034396
:1057500021F0FF010B43D360136843F00103136092
:1057600000202023206484F83D30206384F83E002C
:1057700080E7A06850B905EB4505B3FBF5F30133AD
:10578000C3F30B037BB143F40043C9E7192068431B
:10579000B3FBF0F30133C3F30B0323B143F44043F2
:1057A000BEE70423BCE70123BAE700BFA0860100DF
:1057B0007F841E00FF083D0040420F002DE9F743A3
:1057C000044699460C9E0F469046FFF783F994F8DD
:1057D0003D30202B054603D0022003B0BDE8F08306
:1057E00000903C49192301222046FFF77DFD002847
:1057F000F2D194F83C30012BEED02068012384F8DC
:105800003C300368D9075EBF036843F001030360BF
:10581000036823F400630360212384F83D304023B0
:1058200084F83E30002323640A9B6362BDF82C3069
:105830006385638D2385284BE362CDE900654B4684
:10584000424639462046FFF711FE00282AD00120A3
:10585000C3E7FFF7E5FD40B1236C042B01BF2268CD
:10586000136843F400731360F1E7636A27681A460C
:1058700012F8011B39616262628D218D013A92B288
:1058800062857A69481E80B2520720850AD548B1E0
:105890005A783A6102336362638D013B02399BB2ED
:1058A00021856385238D2A4631462046002BD0D1A1
:1058B000FFF7B6FE0028CFD12268136843F40073C7
:1058C0001360202384F83D3084F83C0084F83E00C7
:1058D00083E700BF020010000000FFFF2DE9F04346
:1058E000044687B09946109F0D469046FFF7F2F8A0
:1058F00094F83D30202B064604D00225284607B0F8
:10590000BDE8F08300907649192301222046FFF775
:10591000EBFC0028F1D194F83C30012BEDD020684D
:10592000012384F83C300368DB075EBF036843F063
:1059300001030360036823F400630360222384F8F7
:105940003D30402384F83E30002323640E9B636285
:10595000BDF83C306385638D2385624BE362294645
:10596000CDE900764B4642462046FFF7D7FD054677
:1059700008B10125C2E7228D2368B2B902905A69A5
:1059800002929A690292029A1A6842F400721A60AC
:10599000DFF85481238D002B2CD1202284F83D2068
:1059A00084F83C3084F83E30A8E7012A0AD11A680E
:1059B00022F480621A6003905A6903929A690392F2
:1059C000039AE1E7022A0ED11A6822F480621A6073
:1059D0001A6842F400621A6004905A6904929B6942
:1059E0000493049BD4E705905A6905929B6905933B
:1059F000059BCDE7032B56D8012B15D132463946EE
:105A00002046FFF7DEFC0028B3D123681A69636AD9
:105A10001A70636A01336362238D013B2385638DB2
:105A2000013B9BB26385B5E7022B00963B464FF0E6
:105A300000024146204619D1FFF756FC002898D1B4
:105A400023681A6842F400721A601A69636A1A704D
:105A5000626A531C6362238D013B2385638D013B86
:105A60009BB2638523681B695370D2E7FFF73CFC48
:105A7000024600287FF47DAF2368196821F4806115
:105A800019601969636A1970636A00960133636269
:105A9000238D013B2385638D013B9BB2638541468A
:105AA0003B462046C8E7324639462046FFF789FC88
:105AB00000287FF45EAF23681A69636A1A70626A0D
:105AC000531C6362238D013B2385638D013B9BB295
:105AD00063852368596949077FF55CAFC3E700BF59
